{
  "contractName": "Pool",
  "abi": [
    {
      "inputs": [
        {
          "internalType": "address",
          "name": "dai_",
          "type": "address"
        },
        {
          "internalType": "address",
          "name": "eDai_",
          "type": "address"
        },
        {
          "internalType": "string",
          "name": "name_",
          "type": "string"
        },
        {
          "internalType": "string",
          "name": "symbol_",
          "type": "string"
        }
      ],
      "stateMutability": "nonpayable",
      "type": "constructor"
    },
    {
      "anonymous": false,
      "inputs": [
        {
          "indexed": true,
          "internalType": "address",
          "name": "owner",
          "type": "address"
        },
        {
          "indexed": true,
          "internalType": "address",
          "name": "spender",
          "type": "address"
        },
        {
          "indexed": false,
          "internalType": "uint256",
          "name": "value",
          "type": "uint256"
        }
      ],
      "name": "Approval",
      "type": "event"
    },
    {
      "anonymous": false,
      "inputs": [
        {
          "indexed": true,
          "internalType": "address",
          "name": "user",
          "type": "address"
        },
        {
          "indexed": true,
          "internalType": "address",
          "name": "delegate",
          "type": "address"
        },
        {
          "indexed": false,
          "internalType": "bool",
          "name": "enabled",
          "type": "bool"
        }
      ],
      "name": "Delegate",
      "type": "event"
    },
    {
      "anonymous": false,
      "inputs": [
        {
          "indexed": false,
          "internalType": "uint256",
          "name": "maturity",
          "type": "uint256"
        },
        {
          "indexed": true,
          "internalType": "address",
          "name": "from",
          "type": "address"
        },
        {
          "indexed": true,
          "internalType": "address",
          "name": "to",
          "type": "address"
        },
        {
          "indexed": false,
          "internalType": "int256",
          "name": "daiTokens",
          "type": "int256"
        },
        {
          "indexed": false,
          "internalType": "int256",
          "name": "eDaiTokens",
          "type": "int256"
        },
        {
          "indexed": false,
          "internalType": "int256",
          "name": "poolTokens",
          "type": "int256"
        }
      ],
      "name": "Liquidity",
      "type": "event"
    },
    {
      "anonymous": false,
      "inputs": [
        {
          "indexed": false,
          "internalType": "uint256",
          "name": "maturity",
          "type": "uint256"
        },
        {
          "indexed": true,
          "internalType": "address",
          "name": "from",
          "type": "address"
        },
        {
          "indexed": true,
          "internalType": "address",
          "name": "to",
          "type": "address"
        },
        {
          "indexed": false,
          "internalType": "int256",
          "name": "daiTokens",
          "type": "int256"
        },
        {
          "indexed": false,
          "internalType": "int256",
          "name": "eDaiTokens",
          "type": "int256"
        }
      ],
      "name": "Trade",
      "type": "event"
    },
    {
      "anonymous": false,
      "inputs": [
        {
          "indexed": true,
          "internalType": "address",
          "name": "from",
          "type": "address"
        },
        {
          "indexed": true,
          "internalType": "address",
          "name": "to",
          "type": "address"
        },
        {
          "indexed": false,
          "internalType": "uint256",
          "name": "value",
          "type": "uint256"
        }
      ],
      "name": "Transfer",
      "type": "event"
    },
    {
      "inputs": [],
      "name": "DELEGABLE_DOMAIN",
      "outputs": [
        {
          "internalType": "bytes32",
          "name": "",
          "type": "bytes32"
        }
      ],
      "stateMutability": "view",
      "type": "function",
      "constant": true
    },
    {
      "inputs": [],
      "name": "DOMAIN_SEPARATOR",
      "outputs": [
        {
          "internalType": "bytes32",
          "name": "",
          "type": "bytes32"
        }
      ],
      "stateMutability": "view",
      "type": "function",
      "constant": true
    },
    {
      "inputs": [],
      "name": "PERMIT_TYPEHASH",
      "outputs": [
        {
          "internalType": "bytes32",
          "name": "",
          "type": "bytes32"
        }
      ],
      "stateMutability": "view",
      "type": "function",
      "constant": true
    },
    {
      "inputs": [],
      "name": "SIGNATURE_TYPEHASH",
      "outputs": [
        {
          "internalType": "bytes32",
          "name": "",
          "type": "bytes32"
        }
      ],
      "stateMutability": "view",
      "type": "function",
      "constant": true
    },
    {
      "inputs": [
        {
          "internalType": "address",
          "name": "delegate",
          "type": "address"
        }
      ],
      "name": "addDelegate",
      "outputs": [],
      "stateMutability": "nonpayable",
      "type": "function"
    },
    {
      "inputs": [
        {
          "internalType": "address",
          "name": "user",
          "type": "address"
        },
        {
          "internalType": "address",
          "name": "delegate",
          "type": "address"
        },
        {
          "internalType": "uint256",
          "name": "deadline",
          "type": "uint256"
        },
        {
          "internalType": "uint8",
          "name": "v",
          "type": "uint8"
        },
        {
          "internalType": "bytes32",
          "name": "r",
          "type": "bytes32"
        },
        {
          "internalType": "bytes32",
          "name": "s",
          "type": "bytes32"
        }
      ],
      "name": "addDelegateBySignature",
      "outputs": [],
      "stateMutability": "nonpayable",
      "type": "function"
    },
    {
      "inputs": [
        {
          "internalType": "address",
          "name": "owner",
          "type": "address"
        },
        {
          "internalType": "address",
          "name": "spender",
          "type": "address"
        }
      ],
      "name": "allowance",
      "outputs": [
        {
          "internalType": "uint256",
          "name": "",
          "type": "uint256"
        }
      ],
      "stateMutability": "view",
      "type": "function",
      "constant": true
    },
    {
      "inputs": [
        {
          "internalType": "address",
          "name": "spender",
          "type": "address"
        },
        {
          "internalType": "uint256",
          "name": "amount",
          "type": "uint256"
        }
      ],
      "name": "approve",
      "outputs": [
        {
          "internalType": "bool",
          "name": "",
          "type": "bool"
        }
      ],
      "stateMutability": "nonpayable",
      "type": "function"
    },
    {
      "inputs": [
        {
          "internalType": "address",
          "name": "account",
          "type": "address"
        }
      ],
      "name": "balanceOf",
      "outputs": [
        {
          "internalType": "uint256",
          "name": "",
          "type": "uint256"
        }
      ],
      "stateMutability": "view",
      "type": "function",
      "constant": true
    },
    {
      "inputs": [],
      "name": "dai",
      "outputs": [
        {
          "internalType": "contract IERC20",
          "name": "",
          "type": "address"
        }
      ],
      "stateMutability": "view",
      "type": "function",
      "constant": true
    },
    {
      "inputs": [],
      "name": "decimals",
      "outputs": [
        {
          "internalType": "uint8",
          "name": "",
          "type": "uint8"
        }
      ],
      "stateMutability": "view",
      "type": "function",
      "constant": true
    },
    {
      "inputs": [
        {
          "internalType": "address",
          "name": "spender",
          "type": "address"
        },
        {
          "internalType": "uint256",
          "name": "subtractedValue",
          "type": "uint256"
        }
      ],
      "name": "decreaseAllowance",
      "outputs": [
        {
          "internalType": "bool",
          "name": "",
          "type": "bool"
        }
      ],
      "stateMutability": "nonpayable",
      "type": "function"
    },
    {
      "inputs": [
        {
          "internalType": "address",
          "name": "",
          "type": "address"
        },
        {
          "internalType": "address",
          "name": "",
          "type": "address"
        }
      ],
      "name": "delegated",
      "outputs": [
        {
          "internalType": "bool",
          "name": "",
          "type": "bool"
        }
      ],
      "stateMutability": "view",
      "type": "function",
      "constant": true
    },
    {
      "inputs": [],
      "name": "eDai",
      "outputs": [
        {
          "internalType": "contract IEDai",
          "name": "",
          "type": "address"
        }
      ],
      "stateMutability": "view",
      "type": "function",
      "constant": true
    },
    {
      "inputs": [],
      "name": "g1",
      "outputs": [
        {
          "internalType": "int128",
          "name": "",
          "type": "int128"
        }
      ],
      "stateMutability": "view",
      "type": "function",
      "constant": true
    },
    {
      "inputs": [],
      "name": "g2",
      "outputs": [
        {
          "internalType": "int128",
          "name": "",
          "type": "int128"
        }
      ],
      "stateMutability": "view",
      "type": "function",
      "constant": true
    },
    {
      "inputs": [
        {
          "internalType": "address",
          "name": "spender",
          "type": "address"
        },
        {
          "internalType": "uint256",
          "name": "addedValue",
          "type": "uint256"
        }
      ],
      "name": "increaseAllowance",
      "outputs": [
        {
          "internalType": "bool",
          "name": "",
          "type": "bool"
        }
      ],
      "stateMutability": "nonpayable",
      "type": "function"
    },
    {
      "inputs": [],
      "name": "k",
      "outputs": [
        {
          "internalType": "int128",
          "name": "",
          "type": "int128"
        }
      ],
      "stateMutability": "view",
      "type": "function",
      "constant": true
    },
    {
      "inputs": [],
      "name": "maturity",
      "outputs": [
        {
          "internalType": "uint128",
          "name": "",
          "type": "uint128"
        }
      ],
      "stateMutability": "view",
      "type": "function",
      "constant": true
    },
    {
      "inputs": [],
      "name": "name",
      "outputs": [
        {
          "internalType": "string",
          "name": "",
          "type": "string"
        }
      ],
      "stateMutability": "view",
      "type": "function",
      "constant": true
    },
    {
      "inputs": [
        {
          "internalType": "address",
          "name": "",
          "type": "address"
        }
      ],
      "name": "nonces",
      "outputs": [
        {
          "internalType": "uint256",
          "name": "",
          "type": "uint256"
        }
      ],
      "stateMutability": "view",
      "type": "function",
      "constant": true
    },
    {
      "inputs": [
        {
          "internalType": "address",
          "name": "owner",
          "type": "address"
        },
        {
          "internalType": "address",
          "name": "spender",
          "type": "address"
        },
        {
          "internalType": "uint256",
          "name": "amount",
          "type": "uint256"
        },
        {
          "internalType": "uint256",
          "name": "deadline",
          "type": "uint256"
        },
        {
          "internalType": "uint8",
          "name": "v",
          "type": "uint8"
        },
        {
          "internalType": "bytes32",
          "name": "r",
          "type": "bytes32"
        },
        {
          "internalType": "bytes32",
          "name": "s",
          "type": "bytes32"
        }
      ],
      "name": "permit",
      "outputs": [],
      "stateMutability": "nonpayable",
      "type": "function"
    },
    {
      "inputs": [
        {
          "internalType": "address",
          "name": "delegate",
          "type": "address"
        }
      ],
      "name": "revokeDelegate",
      "outputs": [],
      "stateMutability": "nonpayable",
      "type": "function"
    },
    {
      "inputs": [
        {
          "internalType": "address",
          "name": "",
          "type": "address"
        }
      ],
      "name": "signatureCount",
      "outputs": [
        {
          "internalType": "uint256",
          "name": "",
          "type": "uint256"
        }
      ],
      "stateMutability": "view",
      "type": "function",
      "constant": true
    },
    {
      "inputs": [],
      "name": "symbol",
      "outputs": [
        {
          "internalType": "string",
          "name": "",
          "type": "string"
        }
      ],
      "stateMutability": "view",
      "type": "function",
      "constant": true
    },
    {
      "inputs": [],
      "name": "totalSupply",
      "outputs": [
        {
          "internalType": "uint256",
          "name": "",
          "type": "uint256"
        }
      ],
      "stateMutability": "view",
      "type": "function",
      "constant": true
    },
    {
      "inputs": [
        {
          "internalType": "address",
          "name": "recipient",
          "type": "address"
        },
        {
          "internalType": "uint256",
          "name": "amount",
          "type": "uint256"
        }
      ],
      "name": "transfer",
      "outputs": [
        {
          "internalType": "bool",
          "name": "",
          "type": "bool"
        }
      ],
      "stateMutability": "nonpayable",
      "type": "function"
    },
    {
      "inputs": [
        {
          "internalType": "address",
          "name": "sender",
          "type": "address"
        },
        {
          "internalType": "address",
          "name": "recipient",
          "type": "address"
        },
        {
          "internalType": "uint256",
          "name": "amount",
          "type": "uint256"
        }
      ],
      "name": "transferFrom",
      "outputs": [
        {
          "internalType": "bool",
          "name": "",
          "type": "bool"
        }
      ],
      "stateMutability": "nonpayable",
      "type": "function"
    },
    {
      "inputs": [
        {
          "internalType": "uint128",
          "name": "daiIn",
          "type": "uint128"
        }
      ],
      "name": "init",
      "outputs": [],
      "stateMutability": "nonpayable",
      "type": "function"
    },
    {
      "inputs": [
        {
          "internalType": "address",
          "name": "from",
          "type": "address"
        },
        {
          "internalType": "address",
          "name": "to",
          "type": "address"
        },
        {
          "internalType": "uint256",
          "name": "daiOffered",
          "type": "uint256"
        }
      ],
      "name": "mint",
      "outputs": [
        {
          "internalType": "uint256",
          "name": "",
          "type": "uint256"
        }
      ],
      "stateMutability": "nonpayable",
      "type": "function"
    },
    {
      "inputs": [
        {
          "internalType": "address",
          "name": "from",
          "type": "address"
        },
        {
          "internalType": "address",
          "name": "to",
          "type": "address"
        },
        {
          "internalType": "uint256",
          "name": "tokensBurned",
          "type": "uint256"
        }
      ],
      "name": "burn",
      "outputs": [
        {
          "internalType": "uint256",
          "name": "",
          "type": "uint256"
        },
        {
          "internalType": "uint256",
          "name": "",
          "type": "uint256"
        }
      ],
      "stateMutability": "nonpayable",
      "type": "function"
    },
    {
      "inputs": [
        {
          "internalType": "address",
          "name": "from",
          "type": "address"
        },
        {
          "internalType": "address",
          "name": "to",
          "type": "address"
        },
        {
          "internalType": "uint128",
          "name": "daiIn",
          "type": "uint128"
        }
      ],
      "name": "sellDai",
      "outputs": [
        {
          "internalType": "uint128",
          "name": "",
          "type": "uint128"
        }
      ],
      "stateMutability": "nonpayable",
      "type": "function"
    },
    {
      "inputs": [
        {
          "internalType": "uint128",
          "name": "daiIn",
          "type": "uint128"
        }
      ],
      "name": "sellDaiPreview",
      "outputs": [
        {
          "internalType": "uint128",
          "name": "",
          "type": "uint128"
        }
      ],
      "stateMutability": "view",
      "type": "function",
      "constant": true
    },
    {
      "inputs": [
        {
          "internalType": "address",
          "name": "from",
          "type": "address"
        },
        {
          "internalType": "address",
          "name": "to",
          "type": "address"
        },
        {
          "internalType": "uint128",
          "name": "daiOut",
          "type": "uint128"
        }
      ],
      "name": "buyDai",
      "outputs": [
        {
          "internalType": "uint128",
          "name": "",
          "type": "uint128"
        }
      ],
      "stateMutability": "nonpayable",
      "type": "function"
    },
    {
      "inputs": [
        {
          "internalType": "uint128",
          "name": "daiOut",
          "type": "uint128"
        }
      ],
      "name": "buyDaiPreview",
      "outputs": [
        {
          "internalType": "uint128",
          "name": "",
          "type": "uint128"
        }
      ],
      "stateMutability": "view",
      "type": "function",
      "constant": true
    },
    {
      "inputs": [
        {
          "internalType": "address",
          "name": "from",
          "type": "address"
        },
        {
          "internalType": "address",
          "name": "to",
          "type": "address"
        },
        {
          "internalType": "uint128",
          "name": "eDaiIn",
          "type": "uint128"
        }
      ],
      "name": "sellEDai",
      "outputs": [
        {
          "internalType": "uint128",
          "name": "",
          "type": "uint128"
        }
      ],
      "stateMutability": "nonpayable",
      "type": "function"
    },
    {
      "inputs": [
        {
          "internalType": "uint128",
          "name": "eDaiIn",
          "type": "uint128"
        }
      ],
      "name": "sellEDaiPreview",
      "outputs": [
        {
          "internalType": "uint128",
          "name": "",
          "type": "uint128"
        }
      ],
      "stateMutability": "view",
      "type": "function",
      "constant": true
    },
    {
      "inputs": [
        {
          "internalType": "address",
          "name": "from",
          "type": "address"
        },
        {
          "internalType": "address",
          "name": "to",
          "type": "address"
        },
        {
          "internalType": "uint128",
          "name": "eDaiOut",
          "type": "uint128"
        }
      ],
      "name": "buyEDai",
      "outputs": [
        {
          "internalType": "uint128",
          "name": "",
          "type": "uint128"
        }
      ],
      "stateMutability": "nonpayable",
      "type": "function"
    },
    {
      "inputs": [
        {
          "internalType": "uint128",
          "name": "eDaiOut",
          "type": "uint128"
        }
      ],
      "name": "buyEDaiPreview",
      "outputs": [
        {
          "internalType": "uint128",
          "name": "",
          "type": "uint128"
        }
      ],
      "stateMutability": "view",
      "type": "function",
      "constant": true
    },
    {
      "inputs": [],
      "name": "getEDaiReserves",
      "outputs": [
        {
          "internalType": "uint128",
          "name": "",
          "type": "uint128"
        }
      ],
      "stateMutability": "view",
      "type": "function",
      "constant": true
    },
    {
      "inputs": [],
      "name": "getDaiReserves",
      "outputs": [
        {
          "internalType": "uint128",
          "name": "",
          "type": "uint128"
        }
      ],
      "stateMutability": "view",
      "type": "function",
      "constant": true
    }
  ],
  "bytecode": "0x61012060408190527f0d077601844dd17f704bafff948229d27f33b57445915754dfe3d095fda2beb7608052806052620054ba823960405190819003605201902060c052503480156200005157600080fd5b506040516200555e3803806200555e833981810160405260808110156200007757600080fd5b81516020830151604080850180519151939592948301929184640100000000821115620000a357600080fd5b908301906020820185811115620000b957600080fd5b8251640100000000811182820188101715620000d457600080fd5b82525081516020918201929091019080838360005b8381101562000103578181015183820152602001620000e9565b50505050905090810190601f168015620001315780820380516001836020036101000a031916815260200191505b50604052602001805160405193929190846401000000008211156200015557600080fd5b9083019060208201858111156200016b57600080fd5b82516401000000008111828201881017156200018657600080fd5b82525081516020918201929091019080838360005b83811015620001b55781810151838201526020016200019b565b50505050905090810190601f168015620001e35780820380516001836020036101000a031916815260200191505b50604052505050818181818160039080519060200190620002069291906200049d565b5080516200021c9060049060208401906200049d565b50506005805460ff191660121790555060405146908060526200550c8239604080516052928190038301812081830183526005825264165a595b1960da1b6020928301528251808401845260018152603160f81b908301528251808301919091527f0dc8618f4925c4319195a39ada16304f511bf885ff9f3d63bc6b0f3979e46fb6818401526000805160206200549a833981519152606082015260808101959095523060a08087019190915282518087038201815260c090960192839052855195909101949094209093524692915081906200550c8239604080519182900360520182208651602097880120838301835260018452603160f81b93880193909352815180880191909152808201929092526000805160206200549a833981519152606083015260808201939093523060a0808301919091528351808303909101815260c0820180855281519187019190912060e052600980546001600160a01b038c81166001600160a01b031992831617909255600a80548c84169216919091179081905563204f83f960e01b90925293516200041e9691909416945063204f83f99360c480840194509192909190829003018186803b158015620003e157600080fd5b505afa158015620003f6573d6000803e3d6000fd5b505050506040513d60208110156200040d57600080fd5b50516001600160e01b036200043a16565b60801b6001600160801b03191661010052506200053792505050565b60006001600160801b0382111562000499576040805162461bcd60e51b815260206004820152601360248201527f506f6f6c3a2043617374206f766572666c6f7700000000000000000000000000604482015290519081900360640190fd5b5090565b828054600181600116156101000203166002900490600052602060002090601f016020900481019282601f10620004e057805160ff191683800117855562000510565b8280016001018555821562000510579182015b8281111562000510578251825591602001919060010190620004f3565b506200049992620005349250905b808211156200049957600081556001016200051e565b90565b60805160a05160c05160e0516101005160801c614ebc620005de60003980610b9a5280610d825280610e145280610f015280610f875280611091528061112352806113bf5280611634528061170e528061189b5280611b955280611c005280611c86528061205d52806122d852806128ce525080610d085280612407525080610cdb528061239a525080610a595280610edb5250806109f45280611cde5250614ebc6000f3fe608060405234801561001057600080fd5b50600436106102535760003560e01c8063864e8d8111610146578063c0bd65d7116100c3578063e71bdf4111610087578063e71bdf41146107c6578063f2e41a24146107ec578063f4b9fa7514610810578063f6b911bc14610818578063f6bcbd3114610867578063fa352c001461089557610253565b8063c0bd65d7146106c9578063c6c3bbe6146106d1578063cc5783d314610707578063d505accf14610747578063dd62ed3e1461079857610253565b8063b26be9221161010a578063b26be9221461062d578063b4f40c611461066d578063b5d832fe14610675578063b777e8a31461069b578063bdd8a366146106c157610253565b8063864e8d811461056757806395d89b41146105a75780639f1f7f6f146105af578063a457c2d7146105d5578063a9059cbb1461060157610253565b806339509351116101d457806370a082311161019857806370a08231146104ad57806377d739f3146104d35780637ecebe00146104db57806385561a341461050157806385dbe5921461052757610253565b8063395093511461040c57806340cb51da14610438578063459e414f1461045e5780634e20e952146104665780636970a9241461048c57610253565b806323b872dd1161021b57806323b872dd146103a05780632becf329146103d657806330adf81f146103de578063313ce567146103e65780633644e5151461040457610253565b806306fdde0314610258578063095ea7b3146102d557806318160ddd146103155780631a28ff051461032f578063204f83f91461037c575b600080fd5b6102606108bb565b6040805160208082528351818301528351919283929083019185019080838360005b8381101561029a578181015183820152602001610282565b50505050905090810190601f1680156102c75780820380516001836020036101000a031916815260200191505b509250505060405180910390f35b610301600480360360408110156102eb57600080fd5b506001600160a01b038135169060200135610951565b604080519115158252519081900360200190f35b61031d61096f565b60408051918252519081900360200190f35b61037a600480360360c081101561034557600080fd5b506001600160a01b03813581169160208101359091169060408101359060ff6060820135169060808101359060a00135610975565b005b610384610b98565b604080516001600160801b039092168252519081900360200190f35b610301600480360360608110156103b657600080fd5b506001600160a01b03813581169160208101359091169060400135610bbc565b610384610c4a565b61031d610cd9565b6103ee610cfd565b6040805160ff9092168252519081900360200190f35b61031d610d06565b6103016004803603604081101561042257600080fd5b506001600160a01b038135169060200135610d2a565b6103846004803603602081101561044e57600080fd5b50356001600160801b0316610d7e565b61031d610ed9565b6103846004803603602081101561047c57600080fd5b50356001600160801b0316610efd565b610494610fca565b60408051600f92830b90920b8252519081900360200190f35b61031d600480360360208110156104c357600080fd5b50356001600160a01b0316610fdd565b610384610ff8565b61031d600480360360208110156104f157600080fd5b50356001600160a01b031661107b565b6103846004803603602081101561051757600080fd5b50356001600160801b031661108d565b6103846004803603606081101561053d57600080fd5b5080356001600160a01b0390811691602081013590911690604001356001600160801b0316611184565b6103846004803603606081101561057d57600080fd5b5080356001600160a01b0390811691602081013590911690604001356001600160801b0316611436565b6102606116ab565b61037a600480360360208110156105c557600080fd5b50356001600160801b031661170c565b610301600480360360408110156105eb57600080fd5b506001600160a01b038135169060200135611915565b6103016004803603604081101561061757600080fd5b506001600160a01b038135169060200135611983565b6103846004803603606081101561064357600080fd5b5080356001600160a01b0390811691602081013590911690604001356001600160801b0316611997565b610494611bdb565b61031d6004803603602081101561068b57600080fd5b50356001600160a01b0316611bea565b610384600480360360208110156106b157600080fd5b50356001600160801b0316611bfc565b610494611cc9565b61031d611cdc565b61031d600480360360608110156106e757600080fd5b506001600160a01b03813581169160208101359091169060400135611d00565b6103846004803603606081101561071d57600080fd5b5080356001600160a01b0390811691602081013590911690604001356001600160801b03166120da565b61037a600480360360e081101561075d57600080fd5b506001600160a01b03813581169160208101359091169060408101359060608101359060ff6080820135169060a08101359060c0013561231b565b61031d600480360360408110156107ae57600080fd5b506001600160a01b0381358116916020013516612549565b61037a600480360360208110156107dc57600080fd5b50356001600160a01b0316612574565b6107f4612581565b604080516001600160a01b039092168252519081900360200190f35b6107f4612590565b61084e6004803603606081101561082e57600080fd5b506001600160a01b0381358116916020810135909116906040013561259f565b6040805192835260208301919091528051918290030190f35b6103016004803603604081101561087d57600080fd5b506001600160a01b038135811691602001351661294a565b61037a600480360360208110156108ab57600080fd5b50356001600160a01b031661296a565b60038054604080516020601f60026000196101006001881615020190951694909404938401819004810282018101909252828152606093909290918301828280156109475780601f1061091c57610100808354040283529160200191610947565b820191906000526020600020905b81548152906001019060200180831161092a57829003601f168201915b5050505050905090565b600061096561095e612974565b8484612978565b5060015b92915050565b60025490565b428410156109ca576040805162461bcd60e51b815260206004820152601c60248201527f44656c656761626c653a205369676e6174757265206578706972656400000000604482015290519081900360640190fd5b6001600160a01b0380871660008181526006602090815260408083208054600180820190925582517f00000000000000000000000000000000000000000000000000000000000000008186015280840196909652958b166060860152608085019590955260a08085018a90528151808603909101815260c08501825280519083012061190160f01b60e08601527f000000000000000000000000000000000000000000000000000000000000000060e286015261010280860182905282518087039091018152610122860180845281519185019190912090859052610142860180845281905260ff8a1661016287015261018286018990526101a2860188905291519095919491926101c2808401939192601f1981019281900390910190855afa158015610afc573d6000803e3d6000fd5b5050604051601f1901519150506001600160a01b03811615801590610b325750886001600160a01b0316816001600160a01b0316145b610b83576040805162461bcd60e51b815260206004820152601c60248201527f44656c656761626c653a20496e76616c6964207369676e617475726500000000604482015290519081900360640190fd5b610b8d8989612a64565b505050505050505050565b7f000000000000000000000000000000000000000000000000000000000000000081565b6000610bc9848484612b4b565b610c3f84610bd5612974565b610c3a85604051806060016040528060288152602001614d41602891396001600160a01b038a16600090815260016020526040812090610c13612974565b6001600160a01b03168152602081019190915260400160002054919063ffffffff612cb216565b612978565b5060015b9392505050565b6000610cd4610c5761096f565b600a54604080516370a0823160e01b815230600482015290516001600160a01b03909216916370a0823191602480820192602092909190829003018186803b158015610ca257600080fd5b505afa158015610cb6573d6000803e3d6000fd5b505050506040513d6020811015610ccc57600080fd5b505101612d0c565b905090565b7f000000000000000000000000000000000000000000000000000000000000000081565b60055460ff1690565b7f000000000000000000000000000000000000000000000000000000000000000081565b6000610965610d37612974565b84610c3a8560016000610d48612974565b6001600160a01b03908116825260208083019390935260409182016000908120918c16815292529020549063ffffffff612d6416565b60007f00000000000000000000000000000000000000000000000000000000000000006001600160801b03164210610dee576040805162461bcd60e51b815260206004820152600e60248201526d506f6f6c3a20546f6f206c61746560901b604482015290519081900360640190fd5b6000610df8610ff8565b90506000610e04610c4a565b90506000610e56838387610e42427f00000000000000000000000000000000000000000000000000000000000000006001600160801b031603612d0c565b64220c523d7267f333333333333333612dbe565b9050610e628382612fb9565b6001600160801b0316610e75838761301f565b6001600160801b03161015610ed1576040805162461bcd60e51b815260206004820152601b60248201527f506f6f6c3a206544616920726573657276657320746f6f206c6f770000000000604482015290519081900360640190fd5b949350505050565b7f000000000000000000000000000000000000000000000000000000000000000081565b60007f00000000000000000000000000000000000000000000000000000000000000006001600160801b03164210610f6d576040805162461bcd60e51b815260206004820152600e60248201526d506f6f6c3a20546f6f206c61746560901b604482015290519081900360640190fd5b610969610f78610ff8565b610f80610c4a565b84610fb5427f00000000000000000000000000000000000000000000000000000000000000006001600160801b031603612d0c565b64220c523d7268010d79435e50d7943561308e565b6103b66903e800000000000000005b0481565b6001600160a01b031660009081526020819052604090205490565b600954604080516370a0823160e01b81523060048201529051600092610cd4926001600160a01b03909116916370a0823191602480820192602092909190829003018186803b15801561104a57600080fd5b505afa15801561105e573d6000803e3d6000fd5b505050506040513d602081101561107457600080fd5b5051612d0c565b60086020526000908152604090205481565b60007f00000000000000000000000000000000000000000000000000000000000000006001600160801b031642106110fd576040805162461bcd60e51b815260206004820152600e60248201526d506f6f6c3a20546f6f206c61746560901b604482015290519081900360640190fd5b6000611107610ff8565b90506000611113610c4a565b90506000611165838387611151427f00000000000000000000000000000000000000000000000000000000000000006001600160801b031603612d0c565b64220c523d7267f33333333333333361328a565b90506111718386612fb9565b6001600160801b0316610e75838361301f565b6000836040518060400160405280601d8152602001600080516020614d8a833981519152815250816001600160a01b0316336001600160a01b031614806111ee57506001600160a01b038216600090815260076020908152604080832033845290915290205460ff165b81906112785760405162461bcd60e51b81526004018080602001828103825283818151815260200191508051906020019080838360005b8381101561123d578181015183820152602001611225565b50505050905090810190601f16801561126a5780820380516001836020036101000a031916815260200191505b509250505060405180910390fd5b50600061128485611bfc565b600a54604080516323b872dd60e01b81526001600160a01b038b811660048301523060248301526001600160801b038a16604483015291519394509116916323b872dd916064808201926020929091908290030181600087803b1580156112ea57600080fd5b505af11580156112fe573d6000803e3d6000fd5b505050506040513d602081101561131457600080fd5b50506009546040805163a9059cbb60e01b81526001600160a01b0389811660048301526001600160801b03851660248301529151919092169163a9059cbb9160448083019260209291908290030181600087803b15801561137457600080fd5b505af1158015611388573d6000803e3d6000fd5b505050506040513d602081101561139e57600080fd5b50506001600160a01b03808716908816600080516020614c908339815191527f00000000000000000000000000000000000000000000000000000000000000006113f06001600160801b038616613482565b6114028a6001600160801b0316613482565b604080516001600160801b039094168452602084019290925260000382820152519081900360600190a39695505050505050565b6000836040518060400160405280601d8152602001600080516020614d8a833981519152815250816001600160a01b0316336001600160a01b031614806114a057506001600160a01b038216600090815260076020908152604080832033845290915290205460ff165b81906114ed5760405162461bcd60e51b815260206004820181815283516024840152835190928392604490910191908501908083836000831561123d578181015183820152602001611225565b5060006114f985610d7e565b600954604080516323b872dd60e01b81526001600160a01b038b811660048301523060248301526001600160801b038516604483015291519394509116916323b872dd916064808201926020929091908290030181600087803b15801561155f57600080fd5b505af1158015611573573d6000803e3d6000fd5b505050506040513d602081101561158957600080fd5b5050600a546040805163a9059cbb60e01b81526001600160a01b0389811660048301526001600160801b03891660248301529151919092169163a9059cbb9160448083019260209291908290030181600087803b1580156115e957600080fd5b505af11580156115fd573d6000803e3d6000fd5b505050506040513d602081101561161357600080fd5b50506001600160a01b03808716908816600080516020614c908339815191527f00000000000000000000000000000000000000000000000000000000000000006116656001600160801b038616613482565b60000361167a8a6001600160801b0316613482565b604080516001600160801b039094168452602084019290925282820152519081900360600190a39695505050505050565b60048054604080516020601f60026000196101006001881615020190951694909404938401819004810282018101909252828152606093909290918301828280156109475780601f1061091c57610100808354040283529160200191610947565b7f00000000000000000000000000000000000000000000000000000000000000006001600160801b0316421061177a576040805162461bcd60e51b815260206004820152600e60248201526d506f6f6c3a20546f6f206c61746560901b604482015290519081900360640190fd5b61178261096f565b156117d4576040805162461bcd60e51b815260206004820152601960248201527f506f6f6c3a20416c726561647920696e697469616c697a656400000000000000604482015290519081900360640190fd5b600954604080516323b872dd60e01b81523360048201523060248201526001600160801b038416604482015290516001600160a01b03909216916323b872dd916064808201926020929091908290030181600087803b15801561183657600080fd5b505af115801561184a573d6000803e3d6000fd5b505050506040513d602081101561186057600080fd5b506118769050336001600160801b0383166134d6565b33807fd9b421596e3bc3caf78305bc0d270566916f58cd61b71c9c2a3d923a3ea3ea8b7f00000000000000000000000000000000000000000000000000000000000000006118cc6001600160801b038616613482565b60000360006118e3876001600160801b0316613482565b604080516001600160801b0390951685526020850193909352838301919091526060830152519081900360800190a350565b6000610965611922612974565b84610c3a85604051806060016040528060258152602001614e62602591396001600061194c612974565b6001600160a01b03908116825260208083019390935260409182016000908120918d1681529252902054919063ffffffff612cb216565b6000610965611990612974565b8484612b4b565b6000836040518060400160405280601d8152602001600080516020614d8a833981519152815250816001600160a01b0316336001600160a01b03161480611a0157506001600160a01b038216600090815260076020908152604080832033845290915290205460ff165b8190611a4e5760405162461bcd60e51b815260206004820181815283516024840152835190928392604490910191908501908083836000831561123d578181015183820152602001611225565b506000611a5a8561108d565b600954604080516323b872dd60e01b81526001600160a01b038b811660048301523060248301526001600160801b038a16604483015291519394509116916323b872dd916064808201926020929091908290030181600087803b158015611ac057600080fd5b505af1158015611ad4573d6000803e3d6000fd5b505050506040513d6020811015611aea57600080fd5b5050600a546040805163a9059cbb60e01b81526001600160a01b0389811660048301526001600160801b03851660248301529151919092169163a9059cbb9160448083019260209291908290030181600087803b158015611b4a57600080fd5b505af1158015611b5e573d6000803e3d6000fd5b505050506040513d6020811015611b7457600080fd5b50506001600160a01b03808716908816600080516020614c908339815191527f0000000000000000000000000000000000000000000000000000000000000000611bc66001600160801b038a16613482565b60000361167a866001600160801b0316613482565b630784ce00600160401b610fd9565b60066020526000908152604090205481565b60007f00000000000000000000000000000000000000000000000000000000000000006001600160801b03164210611c6c576040805162461bcd60e51b815260206004820152600e60248201526d506f6f6c3a20546f6f206c61746560901b604482015290519081900360640190fd5b610969611c77610ff8565b611c7f610c4a565b84611cb4427f00000000000000000000000000000000000000000000000000000000000000006001600160801b031603612d0c565b64220c523d7268010d79435e50d794356135d2565b6103e86903b60000000000000000610fd9565b7f000000000000000000000000000000000000000000000000000000000000000081565b6000836040518060400160405280601d8152602001600080516020614d8a833981519152815250816001600160a01b0316336001600160a01b03161480611d6a57506001600160a01b038216600090815260076020908152604080832033845290915290205460ff165b8190611db75760405162461bcd60e51b815260206004820181815283516024840152835190928392604490910191908501908083836000831561123d578181015183820152602001611225565b506000611dc261096f565b600954604080516370a0823160e01b815230600482015290519293506000926001600160a01b03909216916370a0823191602480820192602092909190829003018186803b158015611e1357600080fd5b505afa158015611e27573d6000803e3d6000fd5b505050506040513d6020811015611e3d57600080fd5b5051600a54604080516370a0823160e01b815230600482015290519293506000926001600160a01b03909216916370a0823191602480820192602092909190829003018186803b158015611e9057600080fd5b505afa158015611ea4573d6000803e3d6000fd5b505050506040513d6020811015611eba57600080fd5b505190506000611ee083611ed4868b63ffffffff6137a016565b9063ffffffff6137f916565b90506000611ef885611ed4858563ffffffff6137a016565b600954604080516323b872dd60e01b81526001600160a01b038f81166004830152306024830152604482018e905291519394509116916323b872dd916064808201926020929091908290030181600087803b158015611f5657600080fd5b505af1158015611f6a573d6000803e3d6000fd5b505050506040513d6020811015611f8057600080fd5b5051611f8b57600080fd5b600a54604080516323b872dd60e01b81526001600160a01b038e8116600483015230602483015260448201859052915191909216916323b872dd9160648083019260209291908290030181600087803b158015611fe757600080fd5b505af1158015611ffb573d6000803e3d6000fd5b505050506040513d602081101561201157600080fd5b505161201c57600080fd5b6120268a836134d6565b896001600160a01b03168b6001600160a01b03167fd9b421596e3bc3caf78305bc0d270566916f58cd61b71c9c2a3d923a3ea3ea8b7f00000000000000000000000000000000000000000000000000000000000000006120858d613482565b60000361209186613482565b60000361209d88613482565b604080516001600160801b0390951685526020850193909352838301919091526060830152519081900360800190a3509998505050505050505050565b6000836040518060400160405280601d8152602001600080516020614d8a833981519152815250816001600160a01b0316336001600160a01b0316148061214457506001600160a01b038216600090815260076020908152604080832033845290915290205460ff165b81906121915760405162461bcd60e51b815260206004820181815283516024840152835190928392604490910191908501908083836000831561123d578181015183820152602001611225565b50600061219d85610efd565b600a54604080516323b872dd60e01b81526001600160a01b038b811660048301523060248301526001600160801b038516604483015291519394509116916323b872dd916064808201926020929091908290030181600087803b15801561220357600080fd5b505af1158015612217573d6000803e3d6000fd5b505050506040513d602081101561222d57600080fd5b50506009546040805163a9059cbb60e01b81526001600160a01b0389811660048301526001600160801b03891660248301529151919092169163a9059cbb9160448083019260209291908290030181600087803b15801561228d57600080fd5b505af11580156122a1573d6000803e3d6000fd5b505050506040513d60208110156122b757600080fd5b50506001600160a01b03808716908816600080516020614c908339815191527f00000000000000000000000000000000000000000000000000000000000000006123096001600160801b038a16613482565b611402866001600160801b0316613482565b42841015612370576040805162461bcd60e51b815260206004820152601d60248201527f45524332305065726d69743a206578706972656420646561646c696e65000000604482015290519081900360640190fd5b6001600160a01b0380881660008181526008602090815260408083208054600180820190925582517f00000000000000000000000000000000000000000000000000000000000000008186015280840196909652958c166060860152608085018b905260a085019590955260c08085018a90528151808603909101815260e08501825280519083012061190160f01b6101008601527f000000000000000000000000000000000000000000000000000000000000000061010286015261012280860182905282518087039091018152610142860180845281519185019190912090859052610162860180845281905260ff8a166101828701526101a286018990526101c2860188905291519095919491926101e2808401939192601f1981019281900390910190855afa1580156124ab573d6000803e3d6000fd5b5050604051601f1901519150506001600160a01b038116158015906124e15750896001600160a01b0316816001600160a01b0316145b612532576040805162461bcd60e51b815260206004820152601e60248201527f45524332305065726d69743a20696e76616c6964207369676e61747572650000604482015290519081900360640190fd5b61253d8a8a8a612978565b50505050505050505050565b6001600160a01b03918216600090815260016020908152604080832093909416825291909152205490565b61257e3382612a64565b50565b600a546001600160a01b031681565b6009546001600160a01b031681565b600080846040518060400160405280601d8152602001600080516020614d8a833981519152815250816001600160a01b0316336001600160a01b0316148061260a57506001600160a01b038216600090815260076020908152604080832033845290915290205460ff165b81906126575760405162461bcd60e51b815260206004820181815283516024840152835190928392604490910191908501908083836000831561123d578181015183820152602001611225565b50600061266261096f565b600954604080516370a0823160e01b815230600482015290519293506000926001600160a01b03909216916370a0823191602480820192602092909190829003018186803b1580156126b357600080fd5b505afa1580156126c7573d6000803e3d6000fd5b505050506040513d60208110156126dd57600080fd5b5051600a54604080516370a0823160e01b81523060048201529051929350600092839283926001600160a01b03909116916370a0823191602480820192602092909190829003018186803b15801561273457600080fd5b505afa158015612748573d6000803e3d6000fd5b505050506040513d602081101561275e57600080fd5b5051905061277685611ed48c8763ffffffff6137a016565b925061278c85611ed48c8463ffffffff6137a016565b9150506127998b8a61383b565b6009546040805163a9059cbb60e01b81526001600160a01b038d81166004830152602482018690529151919092169163a9059cbb9160448083019260209291908290030181600087803b1580156127ef57600080fd5b505af1158015612803573d6000803e3d6000fd5b505050506040513d602081101561281957600080fd5b5050600a546040805163a9059cbb60e01b81526001600160a01b038d81166004830152602482018590529151919092169163a9059cbb9160448083019260209291908290030181600087803b15801561287157600080fd5b505af1158015612885573d6000803e3d6000fd5b505050506040513d602081101561289b57600080fd5b50506001600160a01b03808b16908c167fd9b421596e3bc3caf78305bc0d270566916f58cd61b71c9c2a3d923a3ea3ea8b7f00000000000000000000000000000000000000000000000000000000000000006128f686613482565b6128ff86613482565b6129088f613482565b604080516001600160801b0390951685526020850193909352838301919091526000036060830152519081900360800190a3909a909950975050505050505050565b600760209081526000928352604080842090915290825290205460ff1681565b61257e3382613943565b3390565b6001600160a01b0383166129bd5760405162461bcd60e51b8152600401808060200182810382526024815260200180614dcf6024913960400191505060405180910390fd5b6001600160a01b038216612a025760405162461bcd60e51b8152600401808060200182810382526022815260200180614c486022913960400191505060405180910390fd5b6001600160a01b03808416600081815260016020908152604080832094871680845294825291829020859055815185815291517f8c5be1e5ebec7d5bd14f71427d1e84f3dd0314c0f7b2291e5b200ac8c7c3b9259281900390910190a3505050565b6001600160a01b0380831660009081526007602090815260408083209385168352929052205460ff1615612adf576040805162461bcd60e51b815260206004820152601c60248201527f44656c656761626c653a20416c72656164792064656c65676174656400000000604482015290519081900360640190fd5b6001600160a01b03808316600081815260076020908152604080832094861680845294825291829020805460ff19166001908117909155825190815291517f045b0fef01772d2fbba53dbd38c9777806eac0865b00af43abcfbcaf50da92069281900390910190a35050565b6001600160a01b038316612b905760405162461bcd60e51b8152600401808060200182810382526025815260200180614daa6025913960400191505060405180910390fd5b6001600160a01b038216612bd55760405162461bcd60e51b8152600401808060200182810382526023815260200180614c036023913960400191505060405180910390fd5b612be0838383613a21565b612c2381604051806060016040528060268152602001614c6a602691396001600160a01b038616600090815260208190526040902054919063ffffffff612cb216565b6001600160a01b038085166000908152602081905260408082209390935590841681522054612c58908263ffffffff612d6416565b6001600160a01b038084166000818152602081815260409182902094909455805185815290519193928716927fddf252ad1be2c89b69c2b068fc378daa952ba7f163c4a11628f55a4df523b3ef92918290030190a3505050565b60008184841115612d045760405162461bcd60e51b815260206004820181815283516024840152835190928392604490910191908501908083836000831561123d578181015183820152602001611225565b505050900390565b60006001600160801b03821115612d60576040805162461bcd60e51b8152602060048201526013602482015272506f6f6c3a2043617374206f766572666c6f7760681b604482015290519081900360640190fd5b5090565b600082820183811015610c43576040805162461bcd60e51b815260206004820152601b60248201527f536166654d6174683a206164646974696f6e206f766572666c6f770000000000604482015290519081900360640190fd5b600080612ded600160401b612de885612de388612de38b6001600160801b0316613a26565b613a44565b613a7b565b9050600081600f0b13612e35576040805162461bcd60e51b81526020600482018190526024820152600080516020614e1e833981519152604482015290519081900360640190fd5b6001600160801b0380871690881603600160801b8110612e9c576040805162461bcd60e51b815260206004820152601c60248201527f5969656c644d6174683a20546f6f206d7563682065446169206f757400000000604482015290519081900360640190fd5b6000612ead8284600160401b613aae565b6001600160801b0316612ec58a85600160401b613aae565b6001600160801b0316612edd8c86600160401b613aae565b6001600160801b031601039050600160801b8110612f2c5760405162461bcd60e51b815260040180806020018281038252602a815260200180614cf6602a913960400191505060405180910390fd5b60008a612f3e83600160401b87613aae565b036001600160801b03169050600160801b8110612f8c5760405162461bcd60e51b8152600401808060200182810382526021815260200180614cd56021913960400191505060405180910390fd5b64e8d4a51000198110612fa157600019612faa565b8064e8d4a51000015b9b9a5050505050505050505050565b60008282016001600160801b038085169082161015610c43576040805162461bcd60e51b815260206004820152601b60248201527f506f6f6c3a2044616920726573657276657320746f6f20686967680000000000604482015290519081900360640190fd5b6000826001600160801b0316826001600160801b03161115613088576040805162461bcd60e51b815260206004820152601b60248201527f506f6f6c3a206544616920726573657276657320746f6f206c6f770000000000604482015290519081900360640190fd5b50900390565b6000806130a784612de3876001600160801b0316613a26565b905060006130bd600160401b612de88685613a44565b9050600081600f0b13613105576040805162461bcd60e51b81526020600482018190526024820152600080516020614e1e833981519152604482015290519081900360640190fd5b6001600160801b03808816908a1603600160801b811061316c576040805162461bcd60e51b815260206004820152601b60248201527f5969656c644d6174683a20546f6f206d75636820446169206f75740000000000604482015290519081900360640190fd5b600061317d8284600160401b613aae565b6001600160801b03166131958b85600160401b613aae565b6001600160801b03166131ad8d86600160401b613aae565b6001600160801b031601039050600160801b81106131fc5760405162461bcd60e51b815260040180806020018281038252602b815260200180614df3602b913960400191505060405180910390fd5b60008a61320e83600160401b87613aae565b036001600160801b03169050600160801b811061325c5760405162461bcd60e51b8152600401808060200182810382526021815260200180614cd56021913960400191505060405180910390fd5b64e8d4a510001981106132715760001961327a565b8064e8d4a51000015b9c9b505050505050505050505050565b6000806132a384612de3876001600160801b0316613a26565b905060006132b9600160401b612de88685613a44565b9050600081600f0b13613301576040805162461bcd60e51b81526020600482018190526024820152600080516020614e1e833981519152604482015290519081900360640190fd5b6001600160801b0389811690881601600160801b8110613368576040805162461bcd60e51b815260206004820152601a60248201527f5969656c644d6174683a20546f6f206d7563682044616920696e000000000000604482015290519081900360640190fd5b60006133798284600160401b613aae565b6001600160801b03166133918b85600160401b613aae565b6001600160801b03166133a98d86600160401b613aae565b6001600160801b031601039050600160801b81106133f85760405162461bcd60e51b8152600401808060200182810382526025815260200180614cb06025913960400191505060405180910390fd5b600061340982600160401b86613aae565b8b036001600160801b03169050600160801b81106134585760405162461bcd60e51b8152600401808060200182810382526021815260200180614cd56021913960400191505060405180910390fd5b64e8d4a51000811161346b57600061327a565b64e8d4a50fff19019b9a5050505050505050505050565b60006001600160ff1b03821115612d60576040805162461bcd60e51b8152602060048201526013602482015272506f6f6c3a2043617374206f766572666c6f7760681b604482015290519081900360640190fd5b6001600160a01b038216613531576040805162461bcd60e51b815260206004820152601f60248201527f45524332303a206d696e7420746f20746865207a65726f206164647265737300604482015290519081900360640190fd5b61353d60008383613a21565b600254613550908263ffffffff612d6416565b6002556001600160a01b03821660009081526020819052604090205461357c908263ffffffff612d6416565b6001600160a01b0383166000818152602081815260408083209490945583518581529351929391927fddf252ad1be2c89b69c2b068fc378daa952ba7f163c4a11628f55a4df523b3ef9281900390910190a35050565b6000806135eb84612de3876001600160801b0316613a26565b90506000613601600160401b612de88685613a44565b9050600081600f0b13613649576040805162461bcd60e51b81526020600482018190526024820152600080516020614e1e833981519152604482015290519081900360640190fd5b6001600160801b0388811690881601600160801b81106136b0576040805162461bcd60e51b815260206004820152601b60248201527f5969656c644d6174683a20546f6f206d756368206544616920696e0000000000604482015290519081900360640190fd5b60006136c18a84600160401b613aae565b6001600160801b03166136d98385600160401b613aae565b6001600160801b03166136f18d86600160401b613aae565b6001600160801b031603019050600160801b81106137405760405162461bcd60e51b8152600401808060200182810382526024815260200180614e3e6024913960400191505060405180910390fd5b600061375182600160401b86613aae565b8c036001600160801b03169050600160801b81106134585760405162461bcd60e51b8152600401808060200182810382526021815260200180614cd56021913960400191505060405180910390fd5b6000826137af57506000610969565b828202828482816137bc57fe5b0414610c435760405162461bcd60e51b8152600401808060200182810382526021815260200180614d206021913960400191505060405180910390fd5b6000610c4383836040518060400160405280601a81526020017f536166654d6174683a206469766973696f6e206279207a65726f000000000000815250613b5b565b6001600160a01b0382166138805760405162461bcd60e51b8152600401808060200182810382526021815260200180614d696021913960400191505060405180910390fd5b61388c82600083613a21565b6138cf81604051806060016040528060228152602001614c26602291396001600160a01b038516600090815260208190526040902054919063ffffffff612cb216565b6001600160a01b0383166000908152602081905260409020556002546138fb908263ffffffff613bc016565b6002556040805182815290516000916001600160a01b038516917fddf252ad1be2c89b69c2b068fc378daa952ba7f163c4a11628f55a4df523b3ef9181900360200190a35050565b6001600160a01b0380831660009081526007602090815260408083209385168352929052205460ff166139bd576040805162461bcd60e51b815260206004820152601e60248201527f44656c656761626c653a20416c726561647920756e64656c6567617465640000604482015290519081900360640190fd5b6001600160a01b038083166000818152600760209081526040808320948616808452948252808320805460ff191690558051928352517f045b0fef01772d2fbba53dbd38c9777806eac0865b00af43abcfbcaf50da92069281900390910190a35050565b505050565b6000677fffffffffffffff821115613a3d57600080fd5b5060401b90565b6000600f83810b9083900b0260401d60016001607f1b03198112801590613a72575060016001607f1b038113155b610c4357600080fd5b6000600f82810b9084900b0360016001607f1b03198112801590613a72575060016001607f1b03811315610c4357600080fd5b60006001600160801b038216613ac357600080fd5b6001600160801b038416613aec576001600160801b038316613ae457600080fd5b506000610c43565b6000826001600160801b0316846001600160801b0316613b0b87613c02565b6001600160801b03036001600160801b03160281613b2557fe5b0490506001600160801b03811115613b41576000915050610c43565b613b53816001600160801b030361444d565b915050610c43565b60008183613baa5760405162461bcd60e51b815260206004820181815283516024840152835190928392604490910191908501908083836000831561123d578181015183820152602001611225565b506000838581613bb657fe5b0495945050505050565b6000610c4383836040518060400160405280601e81526020017f536166654d6174683a207375627472616374696f6e206f766572666c6f770000815250612cb2565b60006001600160801b038216613c1757600080fd5b6001600160801b038216607f60791b600160401b821015613c445760409190911b9060016001607f1b0319015b600160601b821015613c6b5760209190911b906f3fffffffffffffffffffffffffffffff19015b600160701b821015613c925760109190911b906f1fffffffffffffffffffffffffffffff19015b600160781b821015613cb95760089190911b906f0fffffffffffffffffffffffffffffff19015b6001607c1b821015613ce05760049190911b906f07ffffffffffffffffffffffffffffff19015b6001607e1b821015613d075760029190911b906f03ffffffffffffffffffffffffffffff19015b6001607f1b821015613d2e5760019190911b906f01ffffffffffffffffffffffffffffff19015b908002607f1c90600160801b8210613d4e5760019190911c90600160781b175b908002607f1c90600160801b8210613d6e5760019190911c90600160771b175b908002607f1c90600160801b8210613d8e5760019190911c90600160761b175b908002607f1c90600160801b8210613dae5760019190911c90600160751b175b908002607f1c90600160801b8210613dce5760019190911c90600160741b175b908002607f1c90600160801b8210613dee5760019190911c90600160731b175b908002607f1c90600160801b8210613e0e5760019190911c90600160721b175b908002607f1c90600160801b8210613e2e5760019190911c90600160711b175b908002607f1c90600160801b8210613e4e5760019190911c90600160701b175b908002607f1c90600160801b8210613e6e5760019190911c906001606f1b175b908002607f1c90600160801b8210613e8e5760019190911c906001606e1b175b908002607f1c90600160801b8210613eae5760019190911c906001606d1b175b908002607f1c90600160801b8210613ece5760019190911c906001606c1b175b908002607f1c90600160801b8210613eee5760019190911c906001606b1b175b908002607f1c90600160801b8210613f0e5760019190911c906001606a1b175b908002607f1c90600160801b8210613f2e5760019190911c90600160691b175b908002607f1c90600160801b8210613f4e5760019190911c90600160681b175b908002607f1c90600160801b8210613f6e5760019190911c90600160671b175b908002607f1c90600160801b8210613f8e5760019190911c90600160661b175b908002607f1c90600160801b8210613fae5760019190911c90600160651b175b908002607f1c90600160801b8210613fce5760019190911c90600160641b175b908002607f1c90600160801b8210613fee5760019190911c90600160631b175b908002607f1c90600160801b821061400e5760019190911c90600160621b175b908002607f1c90600160801b821061402e5760019190911c90600160611b175b908002607f1c90600160801b821061404e5760019190911c90600160601b175b908002607f1c90600160801b821061406e5760019190911c906001605f1b175b908002607f1c90600160801b821061408e5760019190911c906001605e1b175b908002607f1c90600160801b82106140ae5760019190911c906001605d1b175b908002607f1c90600160801b82106140ce5760019190911c906001605c1b175b908002607f1c90600160801b82106140ee5760019190911c906001605b1b175b908002607f1c90600160801b821061410e5760019190911c906001605a1b175b908002607f1c90600160801b821061412e5760019190911c90600160591b175b908002607f1c90600160801b821061414e5760019190911c90600160581b175b908002607f1c90600160801b821061416e5760019190911c90600160571b175b908002607f1c90600160801b821061418e5760019190911c90600160561b175b908002607f1c90600160801b82106141ae5760019190911c90600160551b175b908002607f1c90600160801b82106141ce5760019190911c90600160541b175b908002607f1c90600160801b82106141ee5760019190911c90600160531b175b908002607f1c90600160801b821061420e5760019190911c90600160521b175b908002607f1c90600160801b821061422e5760019190911c90600160511b175b908002607f1c90600160801b821061424e5760019190911c90600160501b175b908002607f1c90600160801b821061426e5760019190911c906001604f1b175b908002607f1c90600160801b821061428e5760019190911c906001604e1b175b908002607f1c90600160801b82106142ae5760019190911c906001604d1b175b908002607f1c90600160801b82106142ce5760019190911c906001604c1b175b908002607f1c90600160801b82106142ee5760019190911c906001604b1b175b908002607f1c90600160801b821061430e5760019190911c906001604a1b175b908002607f1c90600160801b821061432e5760019190911c90600160491b175b908002607f1c90600160801b821061434e5760019190911c90600160481b175b908002607f1c90600160801b821061436e5760019190911c90600160471b175b908002607f1c90600160801b821061438e5760019190911c90600160461b175b908002607f1c90600160801b82106143ae5760019190911c90600160451b175b908002607f1c90600160801b82106143ce5760019190911c90600160441b175b908002607f1c90600160801b82106143ee5760019190911c90600160431b175b908002607f1c90600160801b821061440e5760019190911c90600160421b175b908002607f1c90600160801b821061442e5760019190911c90600160411b175b908002607f1c90600160801b8210610c4357600160401b179392505050565b60006001607f1b600160781b831615614476576fb504f333f9de6484597d89b3754abe9f02607f1c5b600160771b831615614498576f9837f0518db8a96f46ad23182e42f6f602607f1c5b600160761b8316156144ba576f8b95c1e3ea8bd6e6fbe4628758a53c9002607f1c5b600160751b8316156144dc576f85aac367cc487b14c5c95b8c2154c1b202607f1c5b600160741b8316156144fe576f82cd8698ac2ba1d73e2a475b46520bff02607f1c5b600160731b831615614520576f8164d1f3bc0307737be56527bd14def402607f1c5b600160721b831615614542576f80b1ed4fd999ab6c25335719b6e6fd2002607f1c5b600160711b831615614564576f8058d7d2d5e5f6b094d589f608ee4aa202607f1c5b600160701b831615614586576f802c6436d0e04f50ff8ce94a6797b3ce02607f1c5b6001606f1b8316156145a8576f8016302f174676283690dfe44d11d00802607f1c5b6001606e1b8316156145ca576f800b179c82028fd0945e54e2ae18f2f002607f1c5b6001606d1b8316156145ec576f80058baf7fee3b5d1c718b38e549cb9302607f1c5b6001606c1b83161561460e576f8002c5d00fdcfcb6b6566a58c048be1f02607f1c5b6001606b1b831615614630576f800162e61bed4a48e84c2e1a463473d902607f1c5b6001606a1b831615614652576f8000b17292f702a3aa22beacca94901302607f1c5b600160691b831615614674576f800058b92abbae02030c5fa5256f41fe02607f1c5b600160681b831615614696576f80002c5c8dade4d71776c0f4dbea67d602607f1c5b600160671b8316156146b8576f8000162e44eaf636526be456600bdbe402607f1c5b600160661b8316156146da576f80000b1721fa7c188307016c1cd4e8b602607f1c5b600160651b8316156146fc576f8000058b90de7e4cecfc487503488bb102607f1c5b600160641b83161561471e576f800002c5c8678f36cbfce50a6de60b1402607f1c5b600160631b831615614740576f80000162e431db9f80b2347b5d62e51602607f1c5b600160621b831615614762576f800000b1721872d0c7b08cf1e011415202607f1c5b600160611b831615614784576f80000058b90c1aa8a5c3736cb77e8dff02607f1c5b600160601b8316156147a6576f8000002c5c8605a4635f2efc2362d97802607f1c5b6001605f1b8316156147c8576f800000162e4300e635cf4a109e3939bd02607f1c5b6001605e1b8316156147ea576f8000000b17217ff81bef9c551590cf8302607f1c5b6001605d1b83161561480c576f800000058b90bfdd4e39cd52c0cfa27c02607f1c5b6001605c1b83161561482e576f80000002c5c85fe6f72d669e0e76e41102607f1c5b6001605b1b831615614850576f8000000162e42ff18f9ad35186d0df2802607f1c5b6001605a1b831615614872576f80000000b17217f84cce71aa0dcfffe702607f1c5b600160591b831615614894576f8000000058b90bfc07a77ad56ed22aaa02607f1c5b600160581b8316156148b6576f800000002c5c85fdfc23cdead40da8d602607f1c5b600160571b8316156148d8576f80000000162e42fefc25eb1571853a6602607f1c5b600160561b8316156148fa576f800000000b17217f7d97f692baacded502607f1c5b600160551b83161561491c576f80000000058b90bfbead3b8b5dd254d702607f1c5b600160541b83161561493e576f8000000002c5c85fdf4eedd62f084e6702607f1c5b600160531b831615614960576f800000000162e42fefa58aef378bf58602607f1c5b600160521b831615614982576f8000000000b17217f7d24a78a3c7ef0202607f1c5b600160511b8316156149a4576f800000000058b90bfbe9067c93e474a602607f1c5b600160501b8316156149c6576f80000000002c5c85fdf47b8e5a72599f02607f1c5b6001604f1b8316156149e8576f8000000000162e42fefa3bdb315934a202607f1c5b6001604e1b831615614a0a576f80000000000b17217f7d1d7299b49c4602607f1c5b6001604d1b831615614a2c576f8000000000058b90bfbe8e9a8d1c4ea002607f1c5b6001604c1b831615614a4e576f800000000002c5c85fdf4745969ea76f02607f1c5b6001604b1b831615614a70576f80000000000162e42fefa3a0df5373bf02607f1c5b6001604a1b831615614a92576f800000000000b17217f7d1cff4aac1e102607f1c5b600160491b831615614ab4576f80000000000058b90bfbe8e7db95a2f102607f1c5b600160481b831615614ad6576f8000000000002c5c85fdf473e61ae1f802607f1c5b600160471b831615614af8576f800000000000162e42fefa39f121751c02607f1c5b600160461b831615614b1a576f8000000000000b17217f7d1cf815bb9602607f1c5b600160451b831615614b3c576f800000000000058b90bfbe8e7bec1e0d02607f1c5b600160441b831615614b5e576f80000000000002c5c85fdf473dee5f1702607f1c5b600160431b831615614b80576f8000000000000162e42fefa39ef5438f02607f1c5b600160421b831615614ba2576f80000000000000b17217f7d1cf7a26c802607f1c5b600160411b831615614bc4576f8000000000000058b90bfbe8e7bcf4a402607f1c5b600160401b831615614be6576f800000000000002c5c85fdf473de72a202607f1c5b607f607984901c811690036001600160801b03161c905091905056fe45524332303a207472616e7366657220746f20746865207a65726f206164647265737345524332303a206275726e20616d6f756e7420657863656564732062616c616e636545524332303a20617070726f766520746f20746865207a65726f206164647265737345524332303a207472616e7366657220616d6f756e7420657863656564732062616c616e63653f207773c457c66e004ab34e2ce7ae1fcafc7b4c3286f63997c87428014219155969656c644d6174683a20496e73756666696369656e7420654461692072657365727665735969656c644d6174683a20526f756e64696e6720696e6475636564206572726f725969656c644d6174683a20526573756c74696e672044616920726573657276657320746f6f2068696768536166654d6174683a206d756c7469706c69636174696f6e206f766572666c6f7745524332303a207472616e7366657220616d6f756e74206578636565647320616c6c6f77616e636545524332303a206275726e2066726f6d20746865207a65726f2061646472657373506f6f6c3a204f6e6c7920486f6c646572204f722044656c656761746500000045524332303a207472616e736665722066726f6d20746865207a65726f206164647265737345524332303a20617070726f76652066726f6d20746865207a65726f20616464726573735969656c644d6174683a20526573756c74696e67206544616920726573657276657320746f6f20686967685969656c644d6174683a20546f6f206661722066726f6d206d617475726974795969656c644d6174683a20496e73756666696369656e742044616920726573657276657345524332303a2064656372656173656420616c6c6f77616e63652062656c6f77207a65726fa2646970667358221220138f7bc625e01573f5ce691aca5545dc3bdcff69565a89745fe548f0a06e51f364736f6c634300060a0033c89efdaa54c0f20c7adf612882df0950f5a951637e0307cdcb4c672f298b8bc65065726d69742861646472657373206f776e65722c61646472657373207370656e6465722c75696e743235362076616c75652c75696e74323536206e6f6e63652c75696e7432353620646561646c696e6529454950373132446f6d61696e28737472696e67206e616d652c737472696e672076657273696f6e2c75696e7432353620636861696e49642c6164647265737320766572696679696e67436f6e747261637429",
  "immutableReferences": {
    "9866": [
      {
        "length": 32,
        "start": 2548
      },
      {
        "length": 32,
        "start": 7390
      }
    ],
    "9868": [
      {
        "length": 32,
        "start": 2649
      },
      {
        "length": 32,
        "start": 3803
      }
    ],
    "10131": [
      {
        "length": 32,
        "start": 3291
      },
      {
        "length": 32,
        "start": 9114
      }
    ],
    "10133": [
      {
        "length": 32,
        "start": 3336
      },
      {
        "length": 32,
        "start": 9223
      }
    ],
    "26364": [
      {
        "length": 32,
        "start": 2970
      },
      {
        "length": 32,
        "start": 3458
      },
      {
        "length": 32,
        "start": 3604
      },
      {
        "length": 32,
        "start": 3841
      },
      {
        "length": 32,
        "start": 3975
      },
      {
        "length": 32,
        "start": 4241
      },
      {
        "length": 32,
        "start": 4387
      },
      {
        "length": 32,
        "start": 5055
      },
      {
        "length": 32,
        "start": 5684
      },
      {
        "length": 32,
        "start": 5902
      },
      {
        "length": 32,
        "start": 6299
      },
      {
        "length": 32,
        "start": 7061
      },
      {
        "length": 32,
        "start": 7168
      },
      {
        "length": 32,
        "start": 7302
      },
      {
        "length": 32,
        "start": 8285
      },
      {
        "length": 32,
        "start": 8920
      },
      {
        "length": 32,
        "start": 10446
      }
    ]
  },
  "source": "// SPDX-License-Identifier: GPL-3.0-or-later\npragma solidity ^0.6.10;\n\nimport \"@openzeppelin/contracts/token/ERC20/ERC20.sol\";\nimport \"@openzeppelin/contracts/token/ERC20/IERC20.sol\";\nimport \"./YieldMath.sol\";\nimport \"../helpers/Delegable.sol\";\nimport \"../helpers/ERC20Permit.sol\";\nimport \"../interfaces/IPot.sol\";\nimport \"../interfaces/IEDai.sol\";\nimport \"../interfaces/IPool.sol\";\n\n\n/// @dev The Pool contract exchanges Dai for eDai at a price defined by a specific formula.\ncontract Pool is IPool, Delegable(), ERC20Permit {\n\n    event Trade(uint256 maturity, address indexed from, address indexed to, int256 daiTokens, int256 eDaiTokens);\n    event Liquidity(uint256 maturity, address indexed from, address indexed to, int256 daiTokens, int256 eDaiTokens, int256 poolTokens);\n\n    int128 constant public k = int128(uint256((1 << 64)) / 126144000); // 1 / Seconds in 4 years, in 64.64\n    int128 constant public g1 = int128(uint256((950 << 64)) / 1000); // To be used when selling Dai to the pool. All constants are `ufixed`, to divide them they must be converted to uint256\n    int128 constant public g2 = int128(uint256((1000 << 64)) / 950); // To be used when selling eDai to the pool. All constants are `ufixed`, to divide them they must be converted to uint256\n    uint128 immutable public maturity;\n\n    IERC20 public override dai;\n    IEDai public override eDai;\n\n    constructor(address dai_, address eDai_, string memory name_, string memory symbol_)\n        public\n        ERC20Permit(name_, symbol_)\n    {\n        dai = IERC20(dai_);\n        eDai = IEDai(eDai_);\n\n        maturity = toUint128(eDai.maturity());\n    }\n\n    /// @dev Trading can only be done before maturity\n    modifier beforeMaturity() {\n        require(\n            now < maturity,\n            \"Pool: Too late\"\n        );\n        _;\n    }\n\n    /// @dev Overflow-protected addition, from OpenZeppelin\n    function add(uint128 a, uint128 b)\n        internal pure returns (uint128)\n    {\n        uint128 c = a + b;\n        require(c >= a, \"Pool: Dai reserves too high\");\n\n        return c;\n    }\n\n    /// @dev Overflow-protected substraction, from OpenZeppelin\n    function sub(uint128 a, uint128 b) internal pure returns (uint128) {\n        require(b <= a, \"Pool: eDai reserves too low\");\n        uint128 c = a - b;\n\n        return c;\n    }\n\n    /// @dev Safe casting from uint256 to uint128\n    function toUint128(uint256 x) internal pure returns(uint128) {\n        require(\n            x <= type(uint128).max,\n            \"Pool: Cast overflow\"\n        );\n        return uint128(x);\n    }\n\n    /// @dev Safe casting from uint256 to int256\n    function toInt256(uint256 x) internal pure returns(int256) {\n        require(\n            x <= uint256(type(int256).max),\n            \"Pool: Cast overflow\"\n        );\n        return int256(x);\n    }\n\n    /// @dev Mint initial liquidity tokens.\n    /// The liquidity provider needs to have called `dai.approve`\n    /// @param daiIn The initial Dai liquidity to provide.\n    function init(uint128 daiIn)\n        external\n        beforeMaturity\n    {\n        require(\n            totalSupply() == 0,\n            \"Pool: Already initialized\"\n        );\n        // no eDai transferred, because initial eDai deposit is entirely virtual\n        dai.transferFrom(msg.sender, address(this), daiIn);\n        _mint(msg.sender, daiIn);\n        emit Liquidity(maturity, msg.sender, msg.sender, -toInt256(daiIn), 0, toInt256(daiIn));\n    }\n\n    /// @dev Mint liquidity tokens in exchange for adding dai and eDai\n    /// The liquidity provider needs to have called `dai.approve` and `eDai.approve`.\n    /// @param from Wallet providing the dai and eDai. Must have approved the operator with `pool.addDelegate(operator)`.\n    /// @param to Wallet receiving the minted liquidity tokens.\n    /// @param daiOffered Amount of `dai` being invested, an appropriate amount of `eDai` to be invested alongside will be calculated and taken by this function from the caller.\n    /// @return The amount of liquidity tokens minted.\n    function mint(address from, address to, uint256 daiOffered)\n        external override\n        onlyHolderOrDelegate(from, \"Pool: Only Holder Or Delegate\")\n        returns (uint256)\n    {\n        uint256 supply = totalSupply();\n        uint256 daiReserves = dai.balanceOf(address(this));\n        // use the actual reserves rather than the virtual reserves\n        uint256 eDaiReserves = eDai.balanceOf(address(this));\n        uint256 tokensMinted = supply.mul(daiOffered).div(daiReserves);\n        uint256 eDaiRequired = eDaiReserves.mul(tokensMinted).div(supply);\n\n        require(dai.transferFrom(from, address(this), daiOffered));\n        require(eDai.transferFrom(from, address(this), eDaiRequired));\n        _mint(to, tokensMinted);\n        emit Liquidity(maturity, from, to, -toInt256(daiOffered), -toInt256(eDaiRequired), toInt256(tokensMinted));\n\n        return tokensMinted;\n    }\n\n    /// @dev Burn liquidity tokens in exchange for dai and eDai.\n    /// The liquidity provider needs to have called `pool.approve`.\n    /// @param from Wallet providing the liquidity tokens. Must have approved the operator with `pool.addDelegate(operator)`.\n    /// @param to Wallet receiving the dai and eDai.\n    /// @param tokensBurned Amount of liquidity tokens being burned.\n    /// @return The amount of reserve tokens returned (daiTokens, eDaiTokens).\n    function burn(address from, address to, uint256 tokensBurned)\n        external override\n        onlyHolderOrDelegate(from, \"Pool: Only Holder Or Delegate\")\n        returns (uint256, uint256)\n    {\n        uint256 supply = totalSupply();\n        uint256 daiReserves = dai.balanceOf(address(this));\n        // use the actual reserves rather than the virtual reserves\n        uint256 daiReturned;\n        uint256 eDaiReturned;\n        { // avoiding stack too deep\n            uint256 eDaiReserves = eDai.balanceOf(address(this));\n            daiReturned = tokensBurned.mul(daiReserves).div(supply);\n            eDaiReturned = tokensBurned.mul(eDaiReserves).div(supply);\n        }\n\n        _burn(from, tokensBurned);\n        dai.transfer(to, daiReturned);\n        eDai.transfer(to, eDaiReturned);\n        emit Liquidity(maturity, from, to, toInt256(daiReturned), toInt256(eDaiReturned), -toInt256(tokensBurned));\n\n        return (daiReturned, eDaiReturned);\n    }\n\n    /// @dev Sell Dai for eDai\n    /// The trader needs to have called `dai.approve`\n    /// @param from Wallet providing the dai being sold. Must have approved the operator with `pool.addDelegate(operator)`.\n    /// @param to Wallet receiving the eDai being bought\n    /// @param daiIn Amount of dai being sold that will be taken from the user's wallet\n    /// @return Amount of eDai that will be deposited on `to` wallet\n    function sellDai(address from, address to, uint128 daiIn)\n        external override\n        onlyHolderOrDelegate(from, \"Pool: Only Holder Or Delegate\")\n        returns(uint128)\n    {\n        uint128 eDaiOut = sellDaiPreview(daiIn);\n\n        dai.transferFrom(from, address(this), daiIn);\n        eDai.transfer(to, eDaiOut);\n        emit Trade(maturity, from, to, -toInt256(daiIn), toInt256(eDaiOut));\n\n        return eDaiOut;\n    }\n\n    /// @dev Returns how much eDai would be obtained by selling `daiIn` dai\n    /// @param daiIn Amount of dai hypothetically sold.\n    /// @return Amount of eDai hypothetically bought.\n    function sellDaiPreview(uint128 daiIn)\n        public view override\n        beforeMaturity\n        returns(uint128)\n    {\n        uint128 daiReserves = getDaiReserves();\n        uint128 eDaiReserves = getEDaiReserves();\n\n        uint128 eDaiOut = YieldMath.eDaiOutForDaiIn(\n            daiReserves,\n            eDaiReserves,\n            daiIn,\n            toUint128(maturity - now), // This can't be called after maturity\n            k,\n            g1\n        );\n\n        require(\n            sub(eDaiReserves, eDaiOut) >= add(daiReserves, daiIn),\n            \"Pool: eDai reserves too low\"\n        );\n\n        return eDaiOut;\n    }\n\n    /// @dev Buy Dai for eDai\n    /// The trader needs to have called `eDai.approve`\n    /// @param from Wallet providing the eDai being sold. Must have approved the operator with `pool.addDelegate(operator)`.\n    /// @param to Wallet receiving the dai being bought\n    /// @param daiOut Amount of dai being bought that will be deposited in `to` wallet\n    /// @return Amount of eDai that will be taken from `from` wallet\n    function buyDai(address from, address to, uint128 daiOut)\n        external override\n        onlyHolderOrDelegate(from, \"Pool: Only Holder Or Delegate\")\n        returns(uint128)\n    {\n        uint128 eDaiIn = buyDaiPreview(daiOut);\n\n        eDai.transferFrom(from, address(this), eDaiIn);\n        dai.transfer(to, daiOut);\n        emit Trade(maturity, from, to, toInt256(daiOut), -toInt256(eDaiIn));\n\n        return eDaiIn;\n    }\n\n    /// @dev Returns how much eDai would be required to buy `daiOut` dai.\n    /// @param daiOut Amount of dai hypothetically desired.\n    /// @return Amount of eDai hypothetically required.\n    function buyDaiPreview(uint128 daiOut)\n        public view override\n        beforeMaturity\n        returns(uint128)\n    {\n        return YieldMath.eDaiInForDaiOut(\n            getDaiReserves(),\n            getEDaiReserves(),\n            daiOut,\n            toUint128(maturity - now), // This can't be called after maturity\n            k,\n            g2\n        );\n    }\n\n    /// @dev Sell eDai for Dai\n    /// The trader needs to have called `eDai.approve`\n    /// @param from Wallet providing the eDai being sold. Must have approved the operator with `pool.addDelegate(operator)`.\n    /// @param to Wallet receiving the dai being bought\n    /// @param eDaiIn Amount of eDai being sold that will be taken from the user's wallet\n    /// @return Amount of dai that will be deposited on `to` wallet\n    function sellEDai(address from, address to, uint128 eDaiIn)\n        external override\n        onlyHolderOrDelegate(from, \"Pool: Only Holder Or Delegate\")\n        returns(uint128)\n    {\n        uint128 daiOut = sellEDaiPreview(eDaiIn);\n\n        eDai.transferFrom(from, address(this), eDaiIn);\n        dai.transfer(to, daiOut);\n        emit Trade(maturity, from, to, toInt256(daiOut), -toInt256(eDaiIn));\n\n        return daiOut;\n    }\n\n    /// @dev Returns how much dai would be obtained by selling `eDaiIn` eDai.\n    /// @param eDaiIn Amount of eDai hypothetically sold.\n    /// @return Amount of Dai hypothetically bought.\n    function sellEDaiPreview(uint128 eDaiIn)\n        public view override\n        beforeMaturity\n        returns(uint128)\n    {\n        return YieldMath.daiOutForEDaiIn(\n            getDaiReserves(),\n            getEDaiReserves(),\n            eDaiIn,\n            toUint128(maturity - now), // This can't be called after maturity\n            k,\n            g2\n        );\n    }\n\n    /// @dev Buy eDai for dai\n    /// The trader needs to have called `dai.approve`\n    /// @param from Wallet providing the dai being sold. Must have approved the operator with `pool.addDelegate(operator)`.\n    /// @param to Wallet receiving the eDai being bought\n    /// @param eDaiOut Amount of eDai being bought that will be deposited in `to` wallet\n    /// @return Amount of dai that will be taken from `from` wallet\n    function buyEDai(address from, address to, uint128 eDaiOut)\n        external override\n        onlyHolderOrDelegate(from, \"Pool: Only Holder Or Delegate\")\n        returns(uint128)\n    {\n        uint128 daiIn = buyEDaiPreview(eDaiOut);\n\n        dai.transferFrom(from, address(this), daiIn);\n        eDai.transfer(to, eDaiOut);\n        emit Trade(maturity, from, to, -toInt256(daiIn), toInt256(eDaiOut));\n\n        return daiIn;\n    }\n\n\n    /// @dev Returns how much dai would be required to buy `eDaiOut` eDai.\n    /// @param eDaiOut Amount of eDai hypothetically desired.\n    /// @return Amount of Dai hypothetically required.\n    function buyEDaiPreview(uint128 eDaiOut)\n        public view override\n        beforeMaturity\n        returns(uint128)\n    {\n        uint128 daiReserves = getDaiReserves();\n        uint128 eDaiReserves = getEDaiReserves();\n\n        uint128 daiIn = YieldMath.daiInForEDaiOut(\n            daiReserves,\n            eDaiReserves,\n            eDaiOut,\n            toUint128(maturity - now), // This can't be called after maturity\n            k,\n            g1\n        );\n\n        require(\n            sub(eDaiReserves, eDaiOut) >= add(daiReserves, daiIn),\n            \"Pool: eDai reserves too low\"\n        );\n\n        return daiIn;\n    }\n\n    /// @dev Returns the \"virtual\" eDai reserves\n    function getEDaiReserves()\n        public view override\n        returns(uint128)\n    {\n        return toUint128(eDai.balanceOf(address(this)) + totalSupply());\n    }\n\n    /// @dev Returns the Dai reserves\n    function getDaiReserves()\n        public view override\n        returns(uint128)\n    {\n        return toUint128(dai.balanceOf(address(this)));\n    }\n}\n",
  "sourcePath": "/Users/brucedonovan/dev/yield/yDai/contracts/pool/Pool.sol",
  "compiler": {
    "name": "solc",
    "version": "0.6.10+commit.00c0fcaf.Emscripten.clang"
  },
  "schemaVersion": "3.2.3",
  "updatedAt": "2020-09-14T15:19:01.024Z",
  "networkType": "ethereum",
  "devdoc": {
    "details": "The Pool contract exchanges Dai for eDai at a price defined by a specific formula.",
    "methods": {
      "addDelegate(address)": {
        "details": "Enable a delegate to act on the behalf of caller"
      },
      "addDelegateBySignature(address,address,uint256,uint8,bytes32,bytes32)": {
        "details": "Add a delegate through an encoded signature"
      },
      "allowance(address,address)": {
        "details": "See {IERC20-allowance}."
      },
      "approve(address,uint256)": {
        "details": "See {IERC20-approve}. Requirements: - `spender` cannot be the zero address."
      },
      "balanceOf(address)": {
        "details": "See {IERC20-balanceOf}."
      },
      "burn(address,address,uint256)": {
        "details": "Burn liquidity tokens in exchange for dai and eDai. The liquidity provider needs to have called `pool.approve`.",
        "params": {
          "from": "Wallet providing the liquidity tokens. Must have approved the operator with `pool.addDelegate(operator)`.",
          "to": "Wallet receiving the dai and eDai.",
          "tokensBurned": "Amount of liquidity tokens being burned."
        },
        "returns": {
          "_0": "The amount of reserve tokens returned (daiTokens, eDaiTokens)."
        }
      },
      "buyDai(address,address,uint128)": {
        "details": "Buy Dai for eDai The trader needs to have called `eDai.approve`",
        "params": {
          "daiOut": "Amount of dai being bought that will be deposited in `to` wallet",
          "from": "Wallet providing the eDai being sold. Must have approved the operator with `pool.addDelegate(operator)`.",
          "to": "Wallet receiving the dai being bought"
        },
        "returns": {
          "_0": "Amount of eDai that will be taken from `from` wallet"
        }
      },
      "buyDaiPreview(uint128)": {
        "details": "Returns how much eDai would be required to buy `daiOut` dai.",
        "params": {
          "daiOut": "Amount of dai hypothetically desired."
        },
        "returns": {
          "_0": "Amount of eDai hypothetically required."
        }
      },
      "buyEDai(address,address,uint128)": {
        "details": "Buy eDai for dai The trader needs to have called `dai.approve`",
        "params": {
          "eDaiOut": "Amount of eDai being bought that will be deposited in `to` wallet",
          "from": "Wallet providing the dai being sold. Must have approved the operator with `pool.addDelegate(operator)`.",
          "to": "Wallet receiving the eDai being bought"
        },
        "returns": {
          "_0": "Amount of dai that will be taken from `from` wallet"
        }
      },
      "buyEDaiPreview(uint128)": {
        "details": "Returns how much dai would be required to buy `eDaiOut` eDai.",
        "params": {
          "eDaiOut": "Amount of eDai hypothetically desired."
        },
        "returns": {
          "_0": "Amount of Dai hypothetically required."
        }
      },
      "decimals()": {
        "details": "Returns the number of decimals used to get its user representation. For example, if `decimals` equals `2`, a balance of `505` tokens should be displayed to a user as `5,05` (`505 / 10 ** 2`). Tokens usually opt for a value of 18, imitating the relationship between Ether and Wei. This is the value {ERC20} uses, unless {_setupDecimals} is called. NOTE: This information is only used for _display_ purposes: it in no way affects any of the arithmetic of the contract, including {IERC20-balanceOf} and {IERC20-transfer}."
      },
      "decreaseAllowance(address,uint256)": {
        "details": "Atomically decreases the allowance granted to `spender` by the caller. This is an alternative to {approve} that can be used as a mitigation for problems described in {IERC20-approve}. Emits an {Approval} event indicating the updated allowance. Requirements: - `spender` cannot be the zero address. - `spender` must have allowance for the caller of at least `subtractedValue`."
      },
      "getDaiReserves()": {
        "details": "Returns the Dai reserves"
      },
      "getEDaiReserves()": {
        "details": "Returns the \"virtual\" eDai reserves"
      },
      "increaseAllowance(address,uint256)": {
        "details": "Atomically increases the allowance granted to `spender` by the caller. This is an alternative to {approve} that can be used as a mitigation for problems described in {IERC20-approve}. Emits an {Approval} event indicating the updated allowance. Requirements: - `spender` cannot be the zero address."
      },
      "init(uint128)": {
        "details": "Mint initial liquidity tokens. The liquidity provider needs to have called `dai.approve`",
        "params": {
          "daiIn": "The initial Dai liquidity to provide."
        }
      },
      "mint(address,address,uint256)": {
        "details": "Mint liquidity tokens in exchange for adding dai and eDai The liquidity provider needs to have called `dai.approve` and `eDai.approve`.",
        "params": {
          "daiOffered": "Amount of `dai` being invested, an appropriate amount of `eDai` to be invested alongside will be calculated and taken by this function from the caller.",
          "from": "Wallet providing the dai and eDai. Must have approved the operator with `pool.addDelegate(operator)`.",
          "to": "Wallet receiving the minted liquidity tokens."
        },
        "returns": {
          "_0": "The amount of liquidity tokens minted."
        }
      },
      "name()": {
        "details": "Returns the name of the token."
      },
      "permit(address,address,uint256,uint256,uint8,bytes32,bytes32)": {
        "details": "See {IERC2612-permit}. In cases where the free option is not a concern, deadline can simply be set to uint(-1), so it should be seen as an optional parameter"
      },
      "revokeDelegate(address)": {
        "details": "Stop a delegate from acting on the behalf of caller"
      },
      "sellDai(address,address,uint128)": {
        "details": "Sell Dai for eDai The trader needs to have called `dai.approve`",
        "params": {
          "daiIn": "Amount of dai being sold that will be taken from the user's wallet",
          "from": "Wallet providing the dai being sold. Must have approved the operator with `pool.addDelegate(operator)`.",
          "to": "Wallet receiving the eDai being bought"
        },
        "returns": {
          "_0": "Amount of eDai that will be deposited on `to` wallet"
        }
      },
      "sellDaiPreview(uint128)": {
        "details": "Returns how much eDai would be obtained by selling `daiIn` dai",
        "params": {
          "daiIn": "Amount of dai hypothetically sold."
        },
        "returns": {
          "_0": "Amount of eDai hypothetically bought."
        }
      },
      "sellEDai(address,address,uint128)": {
        "details": "Sell eDai for Dai The trader needs to have called `eDai.approve`",
        "params": {
          "eDaiIn": "Amount of eDai being sold that will be taken from the user's wallet",
          "from": "Wallet providing the eDai being sold. Must have approved the operator with `pool.addDelegate(operator)`.",
          "to": "Wallet receiving the dai being bought"
        },
        "returns": {
          "_0": "Amount of dai that will be deposited on `to` wallet"
        }
      },
      "sellEDaiPreview(uint128)": {
        "details": "Returns how much dai would be obtained by selling `eDaiIn` eDai.",
        "params": {
          "eDaiIn": "Amount of eDai hypothetically sold."
        },
        "returns": {
          "_0": "Amount of Dai hypothetically bought."
        }
      },
      "symbol()": {
        "details": "Returns the symbol of the token, usually a shorter version of the name."
      },
      "totalSupply()": {
        "details": "See {IERC20-totalSupply}."
      },
      "transfer(address,uint256)": {
        "details": "See {IERC20-transfer}. Requirements: - `recipient` cannot be the zero address. - the caller must have a balance of at least `amount`."
      },
      "transferFrom(address,address,uint256)": {
        "details": "See {IERC20-transferFrom}. Emits an {Approval} event indicating the updated allowance. This is not required by the EIP. See the note at the beginning of {ERC20}; Requirements: - `sender` and `recipient` cannot be the zero address. - `sender` must have a balance of at least `amount`. - the caller must have allowance for ``sender``'s tokens of at least `amount`."
      }
    }
  },
  "userdoc": {
    "methods": {}
  }
}