{
  "contractName": "Pool",
  "abi": [
    {
      "inputs": [
        {
          "internalType": "address",
          "name": "dai_",
          "type": "address"
        },
        {
          "internalType": "address",
          "name": "yDai_",
          "type": "address"
        },
        {
          "internalType": "string",
          "name": "name_",
          "type": "string"
        },
        {
          "internalType": "string",
          "name": "symbol_",
          "type": "string"
        }
      ],
      "stateMutability": "nonpayable",
      "type": "constructor"
    },
    {
      "anonymous": false,
      "inputs": [
        {
          "indexed": true,
          "internalType": "address",
          "name": "owner",
          "type": "address"
        },
        {
          "indexed": true,
          "internalType": "address",
          "name": "spender",
          "type": "address"
        },
        {
          "indexed": false,
          "internalType": "uint256",
          "name": "value",
          "type": "uint256"
        }
      ],
      "name": "Approval",
      "type": "event"
    },
    {
      "anonymous": false,
      "inputs": [
        {
          "indexed": true,
          "internalType": "address",
          "name": "user",
          "type": "address"
        },
        {
          "indexed": true,
          "internalType": "address",
          "name": "delegate",
          "type": "address"
        },
        {
          "indexed": false,
          "internalType": "bool",
          "name": "enabled",
          "type": "bool"
        }
      ],
      "name": "Delegate",
      "type": "event"
    },
    {
      "anonymous": false,
      "inputs": [
        {
          "indexed": false,
          "internalType": "uint256",
          "name": "maturity",
          "type": "uint256"
        },
        {
          "indexed": true,
          "internalType": "address",
          "name": "from",
          "type": "address"
        },
        {
          "indexed": true,
          "internalType": "address",
          "name": "to",
          "type": "address"
        },
        {
          "indexed": false,
          "internalType": "int256",
          "name": "daiTokens",
          "type": "int256"
        },
        {
          "indexed": false,
          "internalType": "int256",
          "name": "yDaiTokens",
          "type": "int256"
        },
        {
          "indexed": false,
          "internalType": "int256",
          "name": "poolTokens",
          "type": "int256"
        }
      ],
      "name": "Liquidity",
      "type": "event"
    },
    {
      "anonymous": false,
      "inputs": [
        {
          "indexed": false,
          "internalType": "uint256",
          "name": "maturity",
          "type": "uint256"
        },
        {
          "indexed": true,
          "internalType": "address",
          "name": "from",
          "type": "address"
        },
        {
          "indexed": true,
          "internalType": "address",
          "name": "to",
          "type": "address"
        },
        {
          "indexed": false,
          "internalType": "int256",
          "name": "daiTokens",
          "type": "int256"
        },
        {
          "indexed": false,
          "internalType": "int256",
          "name": "yDaiTokens",
          "type": "int256"
        }
      ],
      "name": "Trade",
      "type": "event"
    },
    {
      "anonymous": false,
      "inputs": [
        {
          "indexed": true,
          "internalType": "address",
          "name": "from",
          "type": "address"
        },
        {
          "indexed": true,
          "internalType": "address",
          "name": "to",
          "type": "address"
        },
        {
          "indexed": false,
          "internalType": "uint256",
          "name": "value",
          "type": "uint256"
        }
      ],
      "name": "Transfer",
      "type": "event"
    },
    {
      "inputs": [],
      "name": "DELEGABLE_DOMAIN",
      "outputs": [
        {
          "internalType": "bytes32",
          "name": "",
          "type": "bytes32"
        }
      ],
      "stateMutability": "view",
      "type": "function",
      "constant": true
    },
    {
      "inputs": [],
      "name": "DOMAIN_SEPARATOR",
      "outputs": [
        {
          "internalType": "bytes32",
          "name": "",
          "type": "bytes32"
        }
      ],
      "stateMutability": "view",
      "type": "function",
      "constant": true
    },
    {
      "inputs": [],
      "name": "PERMIT_TYPEHASH",
      "outputs": [
        {
          "internalType": "bytes32",
          "name": "",
          "type": "bytes32"
        }
      ],
      "stateMutability": "view",
      "type": "function",
      "constant": true
    },
    {
      "inputs": [],
      "name": "SIGNATURE_TYPEHASH",
      "outputs": [
        {
          "internalType": "bytes32",
          "name": "",
          "type": "bytes32"
        }
      ],
      "stateMutability": "view",
      "type": "function",
      "constant": true
    },
    {
      "inputs": [
        {
          "internalType": "address",
          "name": "delegate",
          "type": "address"
        }
      ],
      "name": "addDelegate",
      "outputs": [],
      "stateMutability": "nonpayable",
      "type": "function"
    },
    {
      "inputs": [
        {
          "internalType": "address",
          "name": "user",
          "type": "address"
        },
        {
          "internalType": "address",
          "name": "delegate",
          "type": "address"
        },
        {
          "internalType": "uint256",
          "name": "deadline",
          "type": "uint256"
        },
        {
          "internalType": "uint8",
          "name": "v",
          "type": "uint8"
        },
        {
          "internalType": "bytes32",
          "name": "r",
          "type": "bytes32"
        },
        {
          "internalType": "bytes32",
          "name": "s",
          "type": "bytes32"
        }
      ],
      "name": "addDelegateBySignature",
      "outputs": [],
      "stateMutability": "nonpayable",
      "type": "function"
    },
    {
      "inputs": [
        {
          "internalType": "address",
          "name": "owner",
          "type": "address"
        },
        {
          "internalType": "address",
          "name": "spender",
          "type": "address"
        }
      ],
      "name": "allowance",
      "outputs": [
        {
          "internalType": "uint256",
          "name": "",
          "type": "uint256"
        }
      ],
      "stateMutability": "view",
      "type": "function",
      "constant": true
    },
    {
      "inputs": [
        {
          "internalType": "address",
          "name": "spender",
          "type": "address"
        },
        {
          "internalType": "uint256",
          "name": "amount",
          "type": "uint256"
        }
      ],
      "name": "approve",
      "outputs": [
        {
          "internalType": "bool",
          "name": "",
          "type": "bool"
        }
      ],
      "stateMutability": "nonpayable",
      "type": "function"
    },
    {
      "inputs": [
        {
          "internalType": "address",
          "name": "account",
          "type": "address"
        }
      ],
      "name": "balanceOf",
      "outputs": [
        {
          "internalType": "uint256",
          "name": "",
          "type": "uint256"
        }
      ],
      "stateMutability": "view",
      "type": "function",
      "constant": true
    },
    {
      "inputs": [],
      "name": "dai",
      "outputs": [
        {
          "internalType": "contract IERC20",
          "name": "",
          "type": "address"
        }
      ],
      "stateMutability": "view",
      "type": "function",
      "constant": true
    },
    {
      "inputs": [],
      "name": "decimals",
      "outputs": [
        {
          "internalType": "uint8",
          "name": "",
          "type": "uint8"
        }
      ],
      "stateMutability": "view",
      "type": "function",
      "constant": true
    },
    {
      "inputs": [
        {
          "internalType": "address",
          "name": "spender",
          "type": "address"
        },
        {
          "internalType": "uint256",
          "name": "subtractedValue",
          "type": "uint256"
        }
      ],
      "name": "decreaseAllowance",
      "outputs": [
        {
          "internalType": "bool",
          "name": "",
          "type": "bool"
        }
      ],
      "stateMutability": "nonpayable",
      "type": "function"
    },
    {
      "inputs": [
        {
          "internalType": "address",
          "name": "",
          "type": "address"
        },
        {
          "internalType": "address",
          "name": "",
          "type": "address"
        }
      ],
      "name": "delegated",
      "outputs": [
        {
          "internalType": "bool",
          "name": "",
          "type": "bool"
        }
      ],
      "stateMutability": "view",
      "type": "function",
      "constant": true
    },
    {
      "inputs": [],
      "name": "g",
      "outputs": [
        {
          "internalType": "int128",
          "name": "",
          "type": "int128"
        }
      ],
      "stateMutability": "view",
      "type": "function",
      "constant": true
    },
    {
      "inputs": [
        {
          "internalType": "address",
          "name": "spender",
          "type": "address"
        },
        {
          "internalType": "uint256",
          "name": "addedValue",
          "type": "uint256"
        }
      ],
      "name": "increaseAllowance",
      "outputs": [
        {
          "internalType": "bool",
          "name": "",
          "type": "bool"
        }
      ],
      "stateMutability": "nonpayable",
      "type": "function"
    },
    {
      "inputs": [],
      "name": "k",
      "outputs": [
        {
          "internalType": "int128",
          "name": "",
          "type": "int128"
        }
      ],
      "stateMutability": "view",
      "type": "function",
      "constant": true
    },
    {
      "inputs": [],
      "name": "maturity",
      "outputs": [
        {
          "internalType": "uint128",
          "name": "",
          "type": "uint128"
        }
      ],
      "stateMutability": "view",
      "type": "function",
      "constant": true
    },
    {
      "inputs": [],
      "name": "name",
      "outputs": [
        {
          "internalType": "string",
          "name": "",
          "type": "string"
        }
      ],
      "stateMutability": "view",
      "type": "function",
      "constant": true
    },
    {
      "inputs": [
        {
          "internalType": "address",
          "name": "",
          "type": "address"
        }
      ],
      "name": "nonces",
      "outputs": [
        {
          "internalType": "uint256",
          "name": "",
          "type": "uint256"
        }
      ],
      "stateMutability": "view",
      "type": "function",
      "constant": true
    },
    {
      "inputs": [
        {
          "internalType": "address",
          "name": "owner",
          "type": "address"
        },
        {
          "internalType": "address",
          "name": "spender",
          "type": "address"
        },
        {
          "internalType": "uint256",
          "name": "amount",
          "type": "uint256"
        },
        {
          "internalType": "uint256",
          "name": "deadline",
          "type": "uint256"
        },
        {
          "internalType": "uint8",
          "name": "v",
          "type": "uint8"
        },
        {
          "internalType": "bytes32",
          "name": "r",
          "type": "bytes32"
        },
        {
          "internalType": "bytes32",
          "name": "s",
          "type": "bytes32"
        }
      ],
      "name": "permit",
      "outputs": [],
      "stateMutability": "nonpayable",
      "type": "function"
    },
    {
      "inputs": [
        {
          "internalType": "address",
          "name": "delegate",
          "type": "address"
        }
      ],
      "name": "revokeDelegate",
      "outputs": [],
      "stateMutability": "nonpayable",
      "type": "function"
    },
    {
      "inputs": [
        {
          "internalType": "address",
          "name": "",
          "type": "address"
        }
      ],
      "name": "signatureCount",
      "outputs": [
        {
          "internalType": "uint256",
          "name": "",
          "type": "uint256"
        }
      ],
      "stateMutability": "view",
      "type": "function",
      "constant": true
    },
    {
      "inputs": [],
      "name": "symbol",
      "outputs": [
        {
          "internalType": "string",
          "name": "",
          "type": "string"
        }
      ],
      "stateMutability": "view",
      "type": "function",
      "constant": true
    },
    {
      "inputs": [],
      "name": "totalSupply",
      "outputs": [
        {
          "internalType": "uint256",
          "name": "",
          "type": "uint256"
        }
      ],
      "stateMutability": "view",
      "type": "function",
      "constant": true
    },
    {
      "inputs": [
        {
          "internalType": "address",
          "name": "recipient",
          "type": "address"
        },
        {
          "internalType": "uint256",
          "name": "amount",
          "type": "uint256"
        }
      ],
      "name": "transfer",
      "outputs": [
        {
          "internalType": "bool",
          "name": "",
          "type": "bool"
        }
      ],
      "stateMutability": "nonpayable",
      "type": "function"
    },
    {
      "inputs": [
        {
          "internalType": "address",
          "name": "sender",
          "type": "address"
        },
        {
          "internalType": "address",
          "name": "recipient",
          "type": "address"
        },
        {
          "internalType": "uint256",
          "name": "amount",
          "type": "uint256"
        }
      ],
      "name": "transferFrom",
      "outputs": [
        {
          "internalType": "bool",
          "name": "",
          "type": "bool"
        }
      ],
      "stateMutability": "nonpayable",
      "type": "function"
    },
    {
      "inputs": [],
      "name": "yDai",
      "outputs": [
        {
          "internalType": "contract IYDai",
          "name": "",
          "type": "address"
        }
      ],
      "stateMutability": "view",
      "type": "function",
      "constant": true
    },
    {
      "inputs": [
        {
          "internalType": "uint128",
          "name": "daiIn",
          "type": "uint128"
        }
      ],
      "name": "init",
      "outputs": [],
      "stateMutability": "nonpayable",
      "type": "function"
    },
    {
      "inputs": [
        {
          "internalType": "address",
          "name": "from",
          "type": "address"
        },
        {
          "internalType": "address",
          "name": "to",
          "type": "address"
        },
        {
          "internalType": "uint256",
          "name": "daiOffered",
          "type": "uint256"
        }
      ],
      "name": "mint",
      "outputs": [
        {
          "internalType": "uint256",
          "name": "",
          "type": "uint256"
        }
      ],
      "stateMutability": "nonpayable",
      "type": "function"
    },
    {
      "inputs": [
        {
          "internalType": "address",
          "name": "from",
          "type": "address"
        },
        {
          "internalType": "address",
          "name": "to",
          "type": "address"
        },
        {
          "internalType": "uint256",
          "name": "tokensBurned",
          "type": "uint256"
        }
      ],
      "name": "burn",
      "outputs": [
        {
          "internalType": "uint256",
          "name": "",
          "type": "uint256"
        },
        {
          "internalType": "uint256",
          "name": "",
          "type": "uint256"
        }
      ],
      "stateMutability": "nonpayable",
      "type": "function"
    },
    {
      "inputs": [
        {
          "internalType": "address",
          "name": "from",
          "type": "address"
        },
        {
          "internalType": "address",
          "name": "to",
          "type": "address"
        },
        {
          "internalType": "uint128",
          "name": "daiIn",
          "type": "uint128"
        }
      ],
      "name": "sellDai",
      "outputs": [
        {
          "internalType": "uint128",
          "name": "",
          "type": "uint128"
        }
      ],
      "stateMutability": "nonpayable",
      "type": "function"
    },
    {
      "inputs": [
        {
          "internalType": "uint128",
          "name": "daiIn",
          "type": "uint128"
        }
      ],
      "name": "sellDaiPreview",
      "outputs": [
        {
          "internalType": "uint128",
          "name": "",
          "type": "uint128"
        }
      ],
      "stateMutability": "view",
      "type": "function",
      "constant": true
    },
    {
      "inputs": [
        {
          "internalType": "address",
          "name": "from",
          "type": "address"
        },
        {
          "internalType": "address",
          "name": "to",
          "type": "address"
        },
        {
          "internalType": "uint128",
          "name": "daiOut",
          "type": "uint128"
        }
      ],
      "name": "buyDai",
      "outputs": [
        {
          "internalType": "uint128",
          "name": "",
          "type": "uint128"
        }
      ],
      "stateMutability": "nonpayable",
      "type": "function"
    },
    {
      "inputs": [
        {
          "internalType": "uint128",
          "name": "daiOut",
          "type": "uint128"
        }
      ],
      "name": "buyDaiPreview",
      "outputs": [
        {
          "internalType": "uint128",
          "name": "",
          "type": "uint128"
        }
      ],
      "stateMutability": "view",
      "type": "function",
      "constant": true
    },
    {
      "inputs": [
        {
          "internalType": "address",
          "name": "from",
          "type": "address"
        },
        {
          "internalType": "address",
          "name": "to",
          "type": "address"
        },
        {
          "internalType": "uint128",
          "name": "yDaiIn",
          "type": "uint128"
        }
      ],
      "name": "sellYDai",
      "outputs": [
        {
          "internalType": "uint128",
          "name": "",
          "type": "uint128"
        }
      ],
      "stateMutability": "nonpayable",
      "type": "function"
    },
    {
      "inputs": [
        {
          "internalType": "uint128",
          "name": "yDaiIn",
          "type": "uint128"
        }
      ],
      "name": "sellYDaiPreview",
      "outputs": [
        {
          "internalType": "uint128",
          "name": "",
          "type": "uint128"
        }
      ],
      "stateMutability": "view",
      "type": "function",
      "constant": true
    },
    {
      "inputs": [
        {
          "internalType": "address",
          "name": "from",
          "type": "address"
        },
        {
          "internalType": "address",
          "name": "to",
          "type": "address"
        },
        {
          "internalType": "uint128",
          "name": "yDaiOut",
          "type": "uint128"
        }
      ],
      "name": "buyYDai",
      "outputs": [
        {
          "internalType": "uint128",
          "name": "",
          "type": "uint128"
        }
      ],
      "stateMutability": "nonpayable",
      "type": "function"
    },
    {
      "inputs": [
        {
          "internalType": "uint128",
          "name": "yDaiOut",
          "type": "uint128"
        }
      ],
      "name": "buyYDaiPreview",
      "outputs": [
        {
          "internalType": "uint128",
          "name": "",
          "type": "uint128"
        }
      ],
      "stateMutability": "view",
      "type": "function",
      "constant": true
    },
    {
      "inputs": [],
      "name": "getYDaiReserves",
      "outputs": [
        {
          "internalType": "uint128",
          "name": "",
          "type": "uint128"
        }
      ],
      "stateMutability": "view",
      "type": "function",
      "constant": true
    },
    {
      "inputs": [],
      "name": "getDaiReserves",
      "outputs": [
        {
          "internalType": "uint128",
          "name": "",
          "type": "uint128"
        }
      ],
      "stateMutability": "view",
      "type": "function",
      "constant": true
    }
  ],
  "bytecode": "0x61012060408190527f0d077601844dd17f704bafff948229d27f33b57445915754dfe3d095fda2beb76080528060526200500a823960405190819003605201902060c052503480156200005157600080fd5b50604051620050ae380380620050ae833981810160405260808110156200007757600080fd5b81516020830151604080850180519151939592948301929184640100000000821115620000a357600080fd5b908301906020820185811115620000b957600080fd5b8251640100000000811182820188101715620000d457600080fd5b82525081516020918201929091019080838360005b8381101562000103578181015183820152602001620000e9565b50505050905090810190601f168015620001315780820380516001836020036101000a031916815260200191505b50604052602001805160405193929190846401000000008211156200015557600080fd5b9083019060208201858111156200016b57600080fd5b82516401000000008111828201881017156200018657600080fd5b82525081516020918201929091019080838360005b83811015620001b55781810151838201526020016200019b565b50505050905090810190601f168015620001e35780820380516001836020036101000a031916815260200191505b50604052505050818181818160039080519060200190620002069291906200049d565b5080516200021c9060049060208401906200049d565b50506005805460ff191660121790555060405146908060526200505c8239604080516052928190038301812081830183526005825264165a595b1960da1b6020928301528251808401845260018152603160f81b908301528251808301919091527f0dc8618f4925c4319195a39ada16304f511bf885ff9f3d63bc6b0f3979e46fb68184015260008051602062004fea833981519152606082015260808101959095523060a08087019190915282518087038201815260c090960192839052855195909101949094209093524692915081906200505c8239604080519182900360520182208651602097880120838301835260018452603160f81b938801939093528151808801919091528082019290925260008051602062004fea833981519152606083015260808201939093523060a0808301919091528351808303909101815260c0820180855281519187019190912060e052600980546001600160a01b038c81166001600160a01b031992831617909255600a80548c84169216919091179081905563204f83f960e01b90925293516200041e9691909416945063204f83f99360c480840194509192909190829003018186803b158015620003e157600080fd5b505afa158015620003f6573d6000803e3d6000fd5b505050506040513d60208110156200040d57600080fd5b50516001600160e01b036200043a16565b60801b6001600160801b03191661010052506200053792505050565b60006001600160801b0382111562000499576040805162461bcd60e51b815260206004820152601360248201527f506f6f6c3a2043617374206f766572666c6f7700000000000000000000000000604482015290519081900360640190fd5b5090565b828054600181600116156101000203166002900490600052602060002090601f016020900481019282601f10620004e057805160ff191683800117855562000510565b8280016001018555821562000510579182015b8281111562000510578251825591602001919060010190620004f3565b506200049992620005349250905b808211156200049957600081556001016200051e565b90565b60805160a05160c05160e0516101005160801c614a0c620005de6000398061096652806109ec5280610c555280610ce75280610dae5280610f2b5280610fb152806110ac528061113e5280611202528061138f52806116d5528061198f5280611d635280611fde528061221f52806128a6525080610e8d5280612351525080610e6052806122e4525080610b125280610f05525080610aad528061176f5250614a0c6000f3fe608060405234801561001057600080fd5b50600436106102485760003560e01c8063a457c2d71161013b578063d43fde70116100b8578063e71bdf411161007c578063e71bdf41146107d7578063f4b9fa75146107fd578063f6b911bc14610805578063f6bcbd3114610854578063fa352c001461088257610248565b8063d43fde7014610708578063d505accf14610748578063d7a9dd6114610799578063dd62ed3e146107a1578063e2179b8e146107cf57610248565b8063b5d832fe116100ff578063b5d832fe14610624578063c0bd65d71461064a578063c47b5b8314610652578063c6c3bbe614610692578063cc5783d3146106c857610248565b8063a457c2d714610547578063a9059cbb14610573578063aef52e3f1461059f578063b26be922146105c3578063b4f40c611461060357610248565b80633644e515116101c957806377d739f31161018d57806377d739f3146104c55780637ecebe00146104cd57806385561a34146104f357806395d89b41146105195780639f1f7f6f1461052157610248565b80633644e5151461043d5780633950935114610445578063459e414f146104715780634e20e9521461047957806370a082311461049f57610248565b80631e4d81db116102105780631e4d81db146103b3578063204f83f9146103d957806323b872dd146103e157806330adf81f14610417578063313ce5671461041f57610248565b806306fdde031461024d578063095ea7b3146102ca57806318160ddd1461030a57806318db7ee6146103245780631a28ff0514610366575b600080fd5b6102556108a8565b6040805160208082528351818301528351919283929083019185019080838360005b8381101561028f578181015183820152602001610277565b50505050905090810190601f1680156102bc5780820380516001836020036101000a031916815260200191505b509250505060405180910390f35b6102f6600480360360408110156102e057600080fd5b506001600160a01b03813516906020013561093e565b604080519115158252519081900360200190f35b61031261095c565b60408051918252519081900360200190f35b61034a6004803603602081101561033a57600080fd5b50356001600160801b0316610962565b604080516001600160801b039092168252519081900360200190f35b6103b1600480360360c081101561037c57600080fd5b506001600160a01b03813581169160208101359091169060408101359060ff6060820135169060808101359060a00135610a2e565b005b61034a600480360360208110156103c957600080fd5b50356001600160801b0316610c51565b61034a610dac565b6102f6600480360360608110156103f757600080fd5b506001600160a01b03813581169160208101359091169060400135610dd0565b610312610e5e565b610427610e82565b6040805160ff9092168252519081900360200190f35b610312610e8b565b6102f66004803603604081101561045b57600080fd5b506001600160a01b038135169060200135610eaf565b610312610f03565b61034a6004803603602081101561048f57600080fd5b50356001600160801b0316610f27565b610312600480360360208110156104b557600080fd5b50356001600160a01b0316610ff3565b61034a61100e565b610312600480360360208110156104e357600080fd5b50356001600160a01b0316611096565b61034a6004803603602081101561050957600080fd5b50356001600160801b03166110a8565b61025561119f565b6103b16004803603602081101561053757600080fd5b50356001600160801b0316611200565b6102f66004803603604081101561055d57600080fd5b506001600160a01b038135169060200135611409565b6102f66004803603604081101561058957600080fd5b506001600160a01b038135169060200135611477565b6105a761148b565b604080516001600160a01b039092168252519081900360200190f35b61034a600480360360608110156105d957600080fd5b5080356001600160a01b0390811691602081013590911690604001356001600160801b031661149a565b61060b61174c565b60408051600f92830b90920b8252519081900360200190f35b6103126004803603602081101561063a57600080fd5b50356001600160a01b031661175b565b61031261176d565b61034a6004803603606081101561066857600080fd5b5080356001600160a01b0390811691602081013590911690604001356001600160801b0316611791565b610312600480360360608110156106a857600080fd5b506001600160a01b03813581169160208101359091169060400135611a06565b61034a600480360360608110156106de57600080fd5b5080356001600160a01b0390811691602081013590911690604001356001600160801b0316611de0565b61034a6004803603606081101561071e57600080fd5b5080356001600160a01b0390811691602081013590911690604001356001600160801b0316612021565b6103b1600480360360e081101561075e57600080fd5b506001600160a01b03813581169160208101359091169060408101359060608101359060ff6080820135169060a08101359060c00135612265565b61034a612493565b610312600480360360408110156107b757600080fd5b506001600160a01b038135811691602001351661251d565b61060b612548565b6103b1600480360360208110156107ed57600080fd5b50356001600160a01b031661255b565b6105a7612568565b61083b6004803603606081101561081b57600080fd5b506001600160a01b03813581169160208101359091169060400135612577565b6040805192835260208301919091528051918290030190f35b6102f66004803603604081101561086a57600080fd5b506001600160a01b0381358116916020013516612922565b6103b16004803603602081101561089857600080fd5b50356001600160a01b0316612942565b60038054604080516020601f60026000196101006001881615020190951694909404938401819004810282018101909252828152606093909290918301828280156109345780601f1061090957610100808354040283529160200191610934565b820191906000526020600020905b81548152906001019060200180831161091757829003601f168201915b5050505050905090565b600061095261094b61294c565b8484612950565b5060015b92915050565b60025490565b60007f00000000000000000000000000000000000000000000000000000000000000006001600160801b031642106109d2576040805162461bcd60e51b815260206004820152600e60248201526d506f6f6c3a20546f6f206c61746560901b604482015290519081900360640190fd5b6109566109dd61100e565b6109e5612493565b84610a1a427f00000000000000000000000000000000000000000000000000000000000000006001600160801b031603612a3c565b64220c523d7267ffbe76c8b4395810612a94565b42841015610a83576040805162461bcd60e51b815260206004820152601c60248201527f44656c656761626c653a205369676e6174757265206578706972656400000000604482015290519081900360640190fd5b6001600160a01b0380871660008181526006602090815260408083208054600180820190925582517f00000000000000000000000000000000000000000000000000000000000000008186015280840196909652958b166060860152608085019590955260a08085018a90528151808603909101815260c08501825280519083012061190160f01b60e08601527f000000000000000000000000000000000000000000000000000000000000000060e286015261010280860182905282518087039091018152610122860180845281519185019190912090859052610142860180845281905260ff8a1661016287015261018286018990526101a2860188905291519095919491926101c2808401939192601f1981019281900390910190855afa158015610bb5573d6000803e3d6000fd5b5050604051601f1901519150506001600160a01b03811615801590610beb5750886001600160a01b0316816001600160a01b0316145b610c3c576040805162461bcd60e51b815260206004820152601c60248201527f44656c656761626c653a20496e76616c6964207369676e617475726500000000604482015290519081900360640190fd5b610c468989612c7b565b505050505050505050565b60007f00000000000000000000000000000000000000000000000000000000000000006001600160801b03164210610cc1576040805162461bcd60e51b815260206004820152600e60248201526d506f6f6c3a20546f6f206c61746560901b604482015290519081900360640190fd5b6000610ccb61100e565b90506000610cd7612493565b90506000610d29838387610d15427f00000000000000000000000000000000000000000000000000000000000000006001600160801b031603612a3c565b64220c523d7267ffbe76c8b4395810612d62565b9050610d358382612f34565b6001600160801b0316610d488387612f9a565b6001600160801b03161015610da4576040805162461bcd60e51b815260206004820152601b60248201527f506f6f6c3a207944616920726573657276657320746f6f206c6f770000000000604482015290519081900360640190fd5b949350505050565b7f000000000000000000000000000000000000000000000000000000000000000081565b6000610ddd848484613009565b610e5384610de961294c565b610e4e856040518060600160405280602881526020016148bc602891396001600160a01b038a16600090815260016020526040812090610e2761294c565b6001600160a01b03168152602081019190915260400160002054919063ffffffff61317016565b612950565b5060015b9392505050565b7f000000000000000000000000000000000000000000000000000000000000000081565b60055460ff1690565b7f000000000000000000000000000000000000000000000000000000000000000081565b6000610952610ebc61294c565b84610e4e8560016000610ecd61294c565b6001600160a01b03908116825260208083019390935260409182016000908120918c16815292529020549063ffffffff6131ca16565b7f000000000000000000000000000000000000000000000000000000000000000081565b60007f00000000000000000000000000000000000000000000000000000000000000006001600160801b03164210610f97576040805162461bcd60e51b815260206004820152600e60248201526d506f6f6c3a20546f6f206c61746560901b604482015290519081900360640190fd5b610956610fa261100e565b610faa612493565b84610fdf427f00000000000000000000000000000000000000000000000000000000000000006001600160801b031603612a3c565b64220c523d7267ffbe76c8b4395810613224565b6001600160a01b031660009081526020819052604090205490565b600954604080516370a0823160e01b81523060048201529051600092611091926001600160a01b03909116916370a0823191602480820192602092909190829003018186803b15801561106057600080fd5b505afa158015611074573d6000803e3d6000fd5b505050506040513d602081101561108a57600080fd5b5051612a3c565b905090565b60086020526000908152604090205481565b60007f00000000000000000000000000000000000000000000000000000000000000006001600160801b03164210611118576040805162461bcd60e51b815260206004820152600e60248201526d506f6f6c3a20546f6f206c61746560901b604482015290519081900360640190fd5b600061112261100e565b9050600061112e612493565b9050600061118083838761116c427f00000000000000000000000000000000000000000000000000000000000000006001600160801b031603612a3c565b64220c523d7267ffbe76c8b43958106133f2565b905061118c8386612f34565b6001600160801b0316610d488383612f9a565b60048054604080516020601f60026000196101006001881615020190951694909404938401819004810282018101909252828152606093909290918301828280156109345780601f1061090957610100808354040283529160200191610934565b7f00000000000000000000000000000000000000000000000000000000000000006001600160801b0316421061126e576040805162461bcd60e51b815260206004820152600e60248201526d506f6f6c3a20546f6f206c61746560901b604482015290519081900360640190fd5b61127661095c565b156112c8576040805162461bcd60e51b815260206004820152601960248201527f506f6f6c3a20416c726561647920696e697469616c697a656400000000000000604482015290519081900360640190fd5b600954604080516323b872dd60e01b81523360048201523060248201526001600160801b038416604482015290516001600160a01b03909216916323b872dd916064808201926020929091908290030181600087803b15801561132a57600080fd5b505af115801561133e573d6000803e3d6000fd5b505050506040513d602081101561135457600080fd5b5061136a9050336001600160801b0383166135c0565b33807fd9b421596e3bc3caf78305bc0d270566916f58cd61b71c9c2a3d923a3ea3ea8b7f00000000000000000000000000000000000000000000000000000000000000006113c06001600160801b0386166136bc565b60000360006113d7876001600160801b03166136bc565b604080516001600160801b0390951685526020850193909352838301919091526060830152519081900360800190a350565b600061095261141661294c565b84610e4e856040518060600160405280602581526020016149b2602591396001600061144061294c565b6001600160a01b03908116825260208083019390935260409182016000908120918d1681529252902054919063ffffffff61317016565b600061095261148461294c565b8484613009565b600a546001600160a01b031681565b6000836040518060400160405280601d8152602001600080516020614905833981519152815250816001600160a01b0316336001600160a01b0316148061150457506001600160a01b038216600090815260076020908152604080832033845290915290205460ff165b819061158e5760405162461bcd60e51b81526004018080602001828103825283818151815260200191508051906020019080838360005b8381101561155357818101518382015260200161153b565b50505050905090810190601f1680156115805780820380516001836020036101000a031916815260200191505b509250505060405180910390fd5b50600061159a856110a8565b600954604080516323b872dd60e01b81526001600160a01b038b811660048301523060248301526001600160801b038a16604483015291519394509116916323b872dd916064808201926020929091908290030181600087803b15801561160057600080fd5b505af1158015611614573d6000803e3d6000fd5b505050506040513d602081101561162a57600080fd5b5050600a546040805163a9059cbb60e01b81526001600160a01b0389811660048301526001600160801b03851660248301529151919092169163a9059cbb9160448083019260209291908290030181600087803b15801561168a57600080fd5b505af115801561169e573d6000803e3d6000fd5b505050506040513d60208110156116b457600080fd5b50506001600160a01b038087169088166000805160206148308339815191527f00000000000000000000000000000000000000000000000000000000000000006117066001600160801b038a166136bc565b60000361171b866001600160801b03166136bc565b604080516001600160801b039094168452602084019290925282820152519081900360600190a39695505050505050565b630784ce00600160401b5b0481565b60066020526000908152604090205481565b7f000000000000000000000000000000000000000000000000000000000000000081565b6000836040518060400160405280601d8152602001600080516020614905833981519152815250816001600160a01b0316336001600160a01b031614806117fb57506001600160a01b038216600090815260076020908152604080832033845290915290205460ff165b81906118485760405162461bcd60e51b815260206004820181815283516024840152835190928392604490910191908501908083836000831561155357818101518382015260200161153b565b50600061185485610962565b600a54604080516323b872dd60e01b81526001600160a01b038b811660048301523060248301526001600160801b038a16604483015291519394509116916323b872dd916064808201926020929091908290030181600087803b1580156118ba57600080fd5b505af11580156118ce573d6000803e3d6000fd5b505050506040513d60208110156118e457600080fd5b50506009546040805163a9059cbb60e01b81526001600160a01b0389811660048301526001600160801b03851660248301529151919092169163a9059cbb9160448083019260209291908290030181600087803b15801561194457600080fd5b505af1158015611958573d6000803e3d6000fd5b505050506040513d602081101561196e57600080fd5b50506001600160a01b038087169088166000805160206148308339815191527f00000000000000000000000000000000000000000000000000000000000000006119c06001600160801b0386166136bc565b6119d28a6001600160801b03166136bc565b604080516001600160801b039094168452602084019290925260000382820152519081900360600190a39695505050505050565b6000836040518060400160405280601d8152602001600080516020614905833981519152815250816001600160a01b0316336001600160a01b03161480611a7057506001600160a01b038216600090815260076020908152604080832033845290915290205460ff165b8190611abd5760405162461bcd60e51b815260206004820181815283516024840152835190928392604490910191908501908083836000831561155357818101518382015260200161153b565b506000611ac861095c565b600954604080516370a0823160e01b815230600482015290519293506000926001600160a01b03909216916370a0823191602480820192602092909190829003018186803b158015611b1957600080fd5b505afa158015611b2d573d6000803e3d6000fd5b505050506040513d6020811015611b4357600080fd5b5051600a54604080516370a0823160e01b815230600482015290519293506000926001600160a01b03909216916370a0823191602480820192602092909190829003018186803b158015611b9657600080fd5b505afa158015611baa573d6000803e3d6000fd5b505050506040513d6020811015611bc057600080fd5b505190506000611be683611bda868b63ffffffff61371016565b9063ffffffff61376916565b90506000611bfe85611bda858563ffffffff61371016565b600954604080516323b872dd60e01b81526001600160a01b038f81166004830152306024830152604482018e905291519394509116916323b872dd916064808201926020929091908290030181600087803b158015611c5c57600080fd5b505af1158015611c70573d6000803e3d6000fd5b505050506040513d6020811015611c8657600080fd5b5051611c9157600080fd5b600a54604080516323b872dd60e01b81526001600160a01b038e8116600483015230602483015260448201859052915191909216916323b872dd9160648083019260209291908290030181600087803b158015611ced57600080fd5b505af1158015611d01573d6000803e3d6000fd5b505050506040513d6020811015611d1757600080fd5b5051611d2257600080fd5b611d2c8a836135c0565b896001600160a01b03168b6001600160a01b03167fd9b421596e3bc3caf78305bc0d270566916f58cd61b71c9c2a3d923a3ea3ea8b7f0000000000000000000000000000000000000000000000000000000000000000611d8b8d6136bc565b600003611d97866136bc565b600003611da3886136bc565b604080516001600160801b0390951685526020850193909352838301919091526060830152519081900360800190a3509998505050505050505050565b6000836040518060400160405280601d8152602001600080516020614905833981519152815250816001600160a01b0316336001600160a01b03161480611e4a57506001600160a01b038216600090815260076020908152604080832033845290915290205460ff165b8190611e975760405162461bcd60e51b815260206004820181815283516024840152835190928392604490910191908501908083836000831561155357818101518382015260200161153b565b506000611ea385610f27565b600a54604080516323b872dd60e01b81526001600160a01b038b811660048301523060248301526001600160801b038516604483015291519394509116916323b872dd916064808201926020929091908290030181600087803b158015611f0957600080fd5b505af1158015611f1d573d6000803e3d6000fd5b505050506040513d6020811015611f3357600080fd5b50506009546040805163a9059cbb60e01b81526001600160a01b0389811660048301526001600160801b03891660248301529151919092169163a9059cbb9160448083019260209291908290030181600087803b158015611f9357600080fd5b505af1158015611fa7573d6000803e3d6000fd5b505050506040513d6020811015611fbd57600080fd5b50506001600160a01b038087169088166000805160206148308339815191527f000000000000000000000000000000000000000000000000000000000000000061200f6001600160801b038a166136bc565b6119d2866001600160801b03166136bc565b6000836040518060400160405280601d8152602001600080516020614905833981519152815250816001600160a01b0316336001600160a01b0316148061208b57506001600160a01b038216600090815260076020908152604080832033845290915290205460ff165b81906120d85760405162461bcd60e51b815260206004820181815283516024840152835190928392604490910191908501908083836000831561155357818101518382015260200161153b565b5060006120e485610c51565b600954604080516323b872dd60e01b81526001600160a01b038b811660048301523060248301526001600160801b038516604483015291519394509116916323b872dd916064808201926020929091908290030181600087803b15801561214a57600080fd5b505af115801561215e573d6000803e3d6000fd5b505050506040513d602081101561217457600080fd5b5050600a546040805163a9059cbb60e01b81526001600160a01b0389811660048301526001600160801b03891660248301529151919092169163a9059cbb9160448083019260209291908290030181600087803b1580156121d457600080fd5b505af11580156121e8573d6000803e3d6000fd5b505050506040513d60208110156121fe57600080fd5b50506001600160a01b038087169088166000805160206148308339815191527f00000000000000000000000000000000000000000000000000000000000000006122506001600160801b0386166136bc565b60000361171b8a6001600160801b03166136bc565b428410156122ba576040805162461bcd60e51b815260206004820152601d60248201527f45524332305065726d69743a206578706972656420646561646c696e65000000604482015290519081900360640190fd5b6001600160a01b0380881660008181526008602090815260408083208054600180820190925582517f00000000000000000000000000000000000000000000000000000000000000008186015280840196909652958c166060860152608085018b905260a085019590955260c08085018a90528151808603909101815260e08501825280519083012061190160f01b6101008601527f000000000000000000000000000000000000000000000000000000000000000061010286015261012280860182905282518087039091018152610142860180845281519185019190912090859052610162860180845281905260ff8a166101828701526101a286018990526101c2860188905291519095919491926101e2808401939192601f1981019281900390910190855afa1580156123f5573d6000803e3d6000fd5b5050604051601f1901519150506001600160a01b0381161580159061242b5750896001600160a01b0316816001600160a01b0316145b61247c576040805162461bcd60e51b815260206004820152601e60248201527f45524332305065726d69743a20696e76616c6964207369676e61747572650000604482015290519081900360640190fd5b6124878a8a8a612950565b50505050505050505050565b60006110916124a061095c565b600a54604080516370a0823160e01b815230600482015290516001600160a01b03909216916370a0823191602480820192602092909190829003018186803b1580156124eb57600080fd5b505afa1580156124ff573d6000803e3d6000fd5b505050506040513d602081101561251557600080fd5b505101612a3c565b6001600160a01b03918216600090815260016020908152604080832093909416825291909152205490565b6103e86903e70000000000000000611757565b6125653382612c7b565b50565b6009546001600160a01b031681565b600080846040518060400160405280601d8152602001600080516020614905833981519152815250816001600160a01b0316336001600160a01b031614806125e257506001600160a01b038216600090815260076020908152604080832033845290915290205460ff165b819061262f5760405162461bcd60e51b815260206004820181815283516024840152835190928392604490910191908501908083836000831561155357818101518382015260200161153b565b50600061263a61095c565b600954604080516370a0823160e01b815230600482015290519293506000926001600160a01b03909216916370a0823191602480820192602092909190829003018186803b15801561268b57600080fd5b505afa15801561269f573d6000803e3d6000fd5b505050506040513d60208110156126b557600080fd5b5051600a54604080516370a0823160e01b81523060048201529051929350600092839283926001600160a01b03909116916370a0823191602480820192602092909190829003018186803b15801561270c57600080fd5b505afa158015612720573d6000803e3d6000fd5b505050506040513d602081101561273657600080fd5b5051905061274e85611bda8c8763ffffffff61371016565b925061276485611bda8c8463ffffffff61371016565b9150506127718b8a6137ab565b6009546040805163a9059cbb60e01b81526001600160a01b038d81166004830152602482018690529151919092169163a9059cbb9160448083019260209291908290030181600087803b1580156127c757600080fd5b505af11580156127db573d6000803e3d6000fd5b505050506040513d60208110156127f157600080fd5b5050600a546040805163a9059cbb60e01b81526001600160a01b038d81166004830152602482018590529151919092169163a9059cbb9160448083019260209291908290030181600087803b15801561284957600080fd5b505af115801561285d573d6000803e3d6000fd5b505050506040513d602081101561287357600080fd5b50506001600160a01b03808b16908c167fd9b421596e3bc3caf78305bc0d270566916f58cd61b71c9c2a3d923a3ea3ea8b7f00000000000000000000000000000000000000000000000000000000000000006128ce866136bc565b6128d7866136bc565b6128e08f6136bc565b604080516001600160801b0390951685526020850193909352838301919091526000036060830152519081900360800190a3909a909950975050505050505050565b600760209081526000928352604080842090915290825290205460ff1681565b61256533826138b3565b3390565b6001600160a01b0383166129955760405162461bcd60e51b815260040180806020018281038252602481526020018061494a6024913960400191505060405180910390fd5b6001600160a01b0382166129da5760405162461bcd60e51b81526004018080602001828103825260228152602001806147e86022913960400191505060405180910390fd5b6001600160a01b03808416600081815260016020908152604080832094871680845294825291829020859055815185815291517f8c5be1e5ebec7d5bd14f71427d1e84f3dd0314c0f7b2291e5b200ac8c7c3b9259281900390910190a3505050565b60006001600160801b03821115612a90576040805162461bcd60e51b8152602060048201526013602482015272506f6f6c3a2043617374206f766572666c6f7760681b604482015290519081900360640190fd5b5090565b600080612ab284612aad876001600160801b0316613991565b6139af565b90506000612acd600160401b612ac886856139af565b6139e6565b9050600081600f0b13612b15576040805162461bcd60e51b8152602060048201819052602482015260008051602061496e833981519152604482015290519081900360640190fd5b6001600160801b0388811690881601600160801b8110612b7c576040805162461bcd60e51b815260206004820152601b60248201527f5969656c644d6174683a20546f6f206d756368207944616920696e0000000000604482015290519081900360640190fd5b6000612b8d8a84600160401b613a19565b6001600160801b0316612ba58385600160401b613a19565b6001600160801b0316612bbd8d86600160401b613a19565b6001600160801b031603019050600160801b8110612c0c5760405162461bcd60e51b815260040180806020018281038252602481526020018061498e6024913960400191505060405180910390fd5b6000612c1d82600160401b86613a19565b8c036001600160801b03169050600160801b8110612c6c5760405162461bcd60e51b81526004018080602001828103825260218152602001806148506021913960400191505060405180910390fd5b9b9a5050505050505050505050565b6001600160a01b0380831660009081526007602090815260408083209385168352929052205460ff1615612cf6576040805162461bcd60e51b815260206004820152601c60248201527f44656c656761626c653a20416c72656164792064656c65676174656400000000604482015290519081900360640190fd5b6001600160a01b03808316600081815260076020908152604080832094861680845294825291829020805460ff19166001908117909155825190815291517f045b0fef01772d2fbba53dbd38c9777806eac0865b00af43abcfbcaf50da92069281900390910190a35050565b600080612d87600160401b612ac885612aad88612aad8b6001600160801b0316613991565b9050600081600f0b13612dcf576040805162461bcd60e51b8152602060048201819052602482015260008051602061496e833981519152604482015290519081900360640190fd5b6001600160801b0380871690881603600160801b8110612e36576040805162461bcd60e51b815260206004820152601c60248201527f5969656c644d6174683a20546f6f206d7563682079446169206f757400000000604482015290519081900360640190fd5b6000612e478284600160401b613a19565b6001600160801b0316612e5f8a85600160401b613a19565b6001600160801b0316612e778c86600160401b613a19565b6001600160801b031601039050600160801b8110612ec65760405162461bcd60e51b815260040180806020018281038252602a815260200180614871602a913960400191505060405180910390fd5b60008a612ed883600160401b87613a19565b036001600160801b03169050600160801b8110612f265760405162461bcd60e51b81526004018080602001828103825260218152602001806148506021913960400191505060405180910390fd5b9a9950505050505050505050565b60008282016001600160801b038085169082161015610e57576040805162461bcd60e51b815260206004820152601b60248201527f506f6f6c3a2044616920726573657276657320746f6f20686967680000000000604482015290519081900360640190fd5b6000826001600160801b0316826001600160801b03161115613003576040805162461bcd60e51b815260206004820152601b60248201527f506f6f6c3a207944616920726573657276657320746f6f206c6f770000000000604482015290519081900360640190fd5b50900390565b6001600160a01b03831661304e5760405162461bcd60e51b81526004018080602001828103825260258152602001806149256025913960400191505060405180910390fd5b6001600160a01b0382166130935760405162461bcd60e51b815260040180806020018281038252602381526020018061477e6023913960400191505060405180910390fd5b61309e838383613ac6565b6130e18160405180606001604052806026815260200161480a602691396001600160a01b038616600090815260208190526040902054919063ffffffff61317016565b6001600160a01b038085166000908152602081905260408082209390935590841681522054613116908263ffffffff6131ca16565b6001600160a01b038084166000818152602081815260409182902094909455805185815290519193928716927fddf252ad1be2c89b69c2b068fc378daa952ba7f163c4a11628f55a4df523b3ef92918290030190a3505050565b600081848411156131c25760405162461bcd60e51b815260206004820181815283516024840152835190928392604490910191908501908083836000831561155357818101518382015260200161153b565b505050900390565b600082820183811015610e57576040805162461bcd60e51b815260206004820152601b60248201527f536166654d6174683a206164646974696f6e206f766572666c6f770000000000604482015290519081900360640190fd5b60008061323d84612aad876001600160801b0316613991565b90506000613253600160401b612ac886856139af565b9050600081600f0b1361329b576040805162461bcd60e51b8152602060048201819052602482015260008051602061496e833981519152604482015290519081900360640190fd5b6001600160801b03808816908a1603600160801b8110613302576040805162461bcd60e51b815260206004820152601b60248201527f5969656c644d6174683a20546f6f206d75636820446169206f75740000000000604482015290519081900360640190fd5b60006133138284600160401b613a19565b6001600160801b031661332b8b85600160401b613a19565b6001600160801b03166133438d86600160401b613a19565b6001600160801b031601039050600160801b81106133925760405162461bcd60e51b815260040180806020018281038252602b815260200180614753602b913960400191505060405180910390fd5b60008a6133a483600160401b87613a19565b036001600160801b03169050600160801b8110612c6c5760405162461bcd60e51b81526004018080602001828103825260218152602001806148506021913960400191505060405180910390fd5b60008061340b84612aad876001600160801b0316613991565b90506000613421600160401b612ac886856139af565b9050600081600f0b13613469576040805162461bcd60e51b8152602060048201819052602482015260008051602061496e833981519152604482015290519081900360640190fd5b6001600160801b0389811690881601600160801b81106134d0576040805162461bcd60e51b815260206004820152601a60248201527f5969656c644d6174683a20546f6f206d7563682044616920696e000000000000604482015290519081900360640190fd5b60006134e18284600160401b613a19565b6001600160801b03166134f98b85600160401b613a19565b6001600160801b03166135118d86600160401b613a19565b6001600160801b031601039050600160801b81106135605760405162461bcd60e51b81526004018080602001828103825260258152602001806147c36025913960400191505060405180910390fd5b600061357182600160401b86613a19565b8b036001600160801b03169050600160801b8110612c6c5760405162461bcd60e51b81526004018080602001828103825260218152602001806148506021913960400191505060405180910390fd5b6001600160a01b03821661361b576040805162461bcd60e51b815260206004820152601f60248201527f45524332303a206d696e7420746f20746865207a65726f206164647265737300604482015290519081900360640190fd5b61362760008383613ac6565b60025461363a908263ffffffff6131ca16565b6002556001600160a01b038216600090815260208190526040902054613666908263ffffffff6131ca16565b6001600160a01b0383166000818152602081815260408083209490945583518581529351929391927fddf252ad1be2c89b69c2b068fc378daa952ba7f163c4a11628f55a4df523b3ef9281900390910190a35050565b60006001600160ff1b03821115612a90576040805162461bcd60e51b8152602060048201526013602482015272506f6f6c3a2043617374206f766572666c6f7760681b604482015290519081900360640190fd5b60008261371f57506000610956565b8282028284828161372c57fe5b0414610e575760405162461bcd60e51b815260040180806020018281038252602181526020018061489b6021913960400191505060405180910390fd5b6000610e5783836040518060400160405280601a81526020017f536166654d6174683a206469766973696f6e206279207a65726f000000000000815250613acb565b6001600160a01b0382166137f05760405162461bcd60e51b81526004018080602001828103825260218152602001806148e46021913960400191505060405180910390fd5b6137fc82600083613ac6565b61383f816040518060600160405280602281526020016147a1602291396001600160a01b038516600090815260208190526040902054919063ffffffff61317016565b6001600160a01b03831660009081526020819052604090205560025461386b908263ffffffff613b3016565b6002556040805182815290516000916001600160a01b038516917fddf252ad1be2c89b69c2b068fc378daa952ba7f163c4a11628f55a4df523b3ef9181900360200190a35050565b6001600160a01b0380831660009081526007602090815260408083209385168352929052205460ff1661392d576040805162461bcd60e51b815260206004820152601e60248201527f44656c656761626c653a20416c726561647920756e64656c6567617465640000604482015290519081900360640190fd5b6001600160a01b038083166000818152600760209081526040808320948616808452948252808320805460ff191690558051928352517f045b0fef01772d2fbba53dbd38c9777806eac0865b00af43abcfbcaf50da92069281900390910190a35050565b6000677fffffffffffffff8211156139a857600080fd5b5060401b90565b6000600f83810b9083900b0260401d60016001607f1b031981128015906139dd575060016001607f1b038113155b610e5757600080fd5b6000600f82810b9084900b0360016001607f1b031981128015906139dd575060016001607f1b03811315610e5757600080fd5b60006001600160801b038216613a2e57600080fd5b6001600160801b038416613a57576001600160801b038316613a4f57600080fd5b506000610e57565b6000826001600160801b0316846001600160801b0316613a7687613b72565b6001600160801b03036001600160801b03160281613a9057fe5b0490506001600160801b03811115613aac576000915050610e57565b613abe816001600160801b03036141bd565b915050610e57565b505050565b60008183613b1a5760405162461bcd60e51b815260206004820181815283516024840152835190928392604490910191908501908083836000831561155357818101518382015260200161153b565b506000838581613b2657fe5b0495945050505050565b6000610e5783836040518060400160405280601e81526020017f536166654d6174683a207375627472616374696f6e206f766572666c6f770000815250613170565b60006001600160801b038216613b8757600080fd5b6001600160801b038216607f60791b600160401b821015613bb45760409190911b9060016001607f1b0319015b600160601b821015613bdb5760209190911b906f3fffffffffffffffffffffffffffffff19015b600160701b821015613c025760109190911b906f1fffffffffffffffffffffffffffffff19015b600160781b821015613c295760089190911b906f0fffffffffffffffffffffffffffffff19015b6001607c1b821015613c505760049190911b906f07ffffffffffffffffffffffffffffff19015b6001607e1b821015613c775760029190911b906f03ffffffffffffffffffffffffffffff19015b6001607f1b821015613c9e5760019190911b906f01ffffffffffffffffffffffffffffff19015b908002607f1c90600160801b8210613cbe5760019190911c90600160781b175b908002607f1c90600160801b8210613cde5760019190911c90600160771b175b908002607f1c90600160801b8210613cfe5760019190911c90600160761b175b908002607f1c90600160801b8210613d1e5760019190911c90600160751b175b908002607f1c90600160801b8210613d3e5760019190911c90600160741b175b908002607f1c90600160801b8210613d5e5760019190911c90600160731b175b908002607f1c90600160801b8210613d7e5760019190911c90600160721b175b908002607f1c90600160801b8210613d9e5760019190911c90600160711b175b908002607f1c90600160801b8210613dbe5760019190911c90600160701b175b908002607f1c90600160801b8210613dde5760019190911c906001606f1b175b908002607f1c90600160801b8210613dfe5760019190911c906001606e1b175b908002607f1c90600160801b8210613e1e5760019190911c906001606d1b175b908002607f1c90600160801b8210613e3e5760019190911c906001606c1b175b908002607f1c90600160801b8210613e5e5760019190911c906001606b1b175b908002607f1c90600160801b8210613e7e5760019190911c906001606a1b175b908002607f1c90600160801b8210613e9e5760019190911c90600160691b175b908002607f1c90600160801b8210613ebe5760019190911c90600160681b175b908002607f1c90600160801b8210613ede5760019190911c90600160671b175b908002607f1c90600160801b8210613efe5760019190911c90600160661b175b908002607f1c90600160801b8210613f1e5760019190911c90600160651b175b908002607f1c90600160801b8210613f3e5760019190911c90600160641b175b908002607f1c90600160801b8210613f5e5760019190911c90600160631b175b908002607f1c90600160801b8210613f7e5760019190911c90600160621b175b908002607f1c90600160801b8210613f9e5760019190911c90600160611b175b908002607f1c90600160801b8210613fbe5760019190911c90600160601b175b908002607f1c90600160801b8210613fde5760019190911c906001605f1b175b908002607f1c90600160801b8210613ffe5760019190911c906001605e1b175b908002607f1c90600160801b821061401e5760019190911c906001605d1b175b908002607f1c90600160801b821061403e5760019190911c906001605c1b175b908002607f1c90600160801b821061405e5760019190911c906001605b1b175b908002607f1c90600160801b821061407e5760019190911c906001605a1b175b908002607f1c90600160801b821061409e5760019190911c90600160591b175b908002607f1c90600160801b82106140be5760019190911c90600160581b175b908002607f1c90600160801b82106140de5760019190911c90600160571b175b908002607f1c90600160801b82106140fe5760019190911c90600160561b175b908002607f1c90600160801b821061411e5760019190911c90600160551b175b908002607f1c90600160801b821061413e5760019190911c90600160541b175b908002607f1c90600160801b821061415e5760019190911c90600160531b175b908002607f1c90600160801b821061417e5760019190911c90600160521b175b908002607f1c90600160801b821061419e5760019190911c90600160511b175b908002607f1c90600160801b8210610e5757600160501b179392505050565b60006001607f1b600160781b8316156141e6576fb504f333f9de6484597d89b3754abe9f02607f1c5b600160771b831615614208576f9837f0518db8a96f46ad23182e42f6f602607f1c5b600160761b83161561422a576f8b95c1e3ea8bd6e6fbe4628758a53c9002607f1c5b600160751b83161561424c576f85aac367cc487b14c5c95b8c2154c1b202607f1c5b600160741b83161561426e576f82cd8698ac2ba1d73e2a475b46520bff02607f1c5b600160731b831615614290576f8164d1f3bc0307737be56527bd14def402607f1c5b600160721b8316156142b2576f80b1ed4fd999ab6c25335719b6e6fd2002607f1c5b600160711b8316156142d4576f8058d7d2d5e5f6b094d589f608ee4aa202607f1c5b600160701b8316156142f6576f802c6436d0e04f50ff8ce94a6797b3ce02607f1c5b6001606f1b831615614318576f8016302f174676283690dfe44d11d00802607f1c5b6001606e1b83161561433a576f800b179c82028fd0945e54e2ae18f2f002607f1c5b6001606d1b83161561435c576f80058baf7fee3b5d1c718b38e549cb9302607f1c5b6001606c1b83161561437e576f8002c5d00fdcfcb6b6566a58c048be1f02607f1c5b6001606b1b8316156143a0576f800162e61bed4a48e84c2e1a463473d902607f1c5b6001606a1b8316156143c2576f8000b17292f702a3aa22beacca94901302607f1c5b600160691b8316156143e4576f800058b92abbae02030c5fa5256f41fe02607f1c5b600160681b831615614406576f80002c5c8dade4d71776c0f4dbea67d602607f1c5b600160671b831615614428576f8000162e44eaf636526be456600bdbe402607f1c5b600160661b83161561444a576f80000b1721fa7c188307016c1cd4e8b602607f1c5b600160651b83161561446c576f8000058b90de7e4cecfc487503488bb102607f1c5b600160641b83161561448e576f800002c5c8678f36cbfce50a6de60b1402607f1c5b600160631b8316156144b0576f80000162e431db9f80b2347b5d62e51602607f1c5b600160621b8316156144d2576f800000b1721872d0c7b08cf1e011415202607f1c5b600160611b8316156144f4576f80000058b90c1aa8a5c3736cb77e8dff02607f1c5b600160601b831615614516576f8000002c5c8605a4635f2efc2362d97802607f1c5b6001605f1b831615614538576f800000162e4300e635cf4a109e3939bd02607f1c5b6001605e1b83161561455a576f8000000b17217ff81bef9c551590cf8302607f1c5b6001605d1b83161561457c576f800000058b90bfdd4e39cd52c0cfa27c02607f1c5b6001605c1b83161561459e576f80000002c5c85fe6f72d669e0e76e41102607f1c5b6001605b1b8316156145c0576f8000000162e42ff18f9ad35186d0df2802607f1c5b6001605a1b8316156145e2576f80000000b17217f84cce71aa0dcfffe702607f1c5b600160591b831615614604576f8000000058b90bfc07a77ad56ed22aaa02607f1c5b600160581b831615614626576f800000002c5c85fdfc23cdead40da8d602607f1c5b600160571b831615614648576f80000000162e42fefc25eb1571853a6602607f1c5b600160561b83161561466a576f800000000b17217f7d97f692baacded502607f1c5b600160551b83161561468c576f80000000058b90bfbead3b8b5dd254d702607f1c5b600160541b8316156146ae576f8000000002c5c85fdf4eedd62f084e6702607f1c5b600160531b8316156146d0576f800000000162e42fefa58aef378bf58602607f1c5b600160521b8316156146f2576f8000000000b17217f7d24a78a3c7ef0202607f1c5b600160511b831615614714576f800000000058b90bfbe9067c93e474a602607f1c5b600160501b831615614736576f80000000002c5c85fdf47b8e5a72599f02607f1c5b607f607984901c811690036001600160801b03161c905091905056fe5969656c644d6174683a20526573756c74696e67207944616920726573657276657320746f6f206869676845524332303a207472616e7366657220746f20746865207a65726f206164647265737345524332303a206275726e20616d6f756e7420657863656564732062616c616e63655969656c644d6174683a20496e73756666696369656e74207944414920726573657276657345524332303a20617070726f766520746f20746865207a65726f206164647265737345524332303a207472616e7366657220616d6f756e7420657863656564732062616c616e63653f207773c457c66e004ab34e2ce7ae1fcafc7b4c3286f63997c87428014219155969656c644d6174683a20526f756e64696e6720696e6475636564206572726f725969656c644d6174683a20526573756c74696e672044616920726573657276657320746f6f2068696768536166654d6174683a206d756c7469706c69636174696f6e206f766572666c6f7745524332303a207472616e7366657220616d6f756e74206578636565647320616c6c6f77616e636545524332303a206275726e2066726f6d20746865207a65726f2061646472657373506f6f6c3a204f6e6c7920486f6c646572204f722044656c656761746500000045524332303a207472616e736665722066726f6d20746865207a65726f206164647265737345524332303a20617070726f76652066726f6d20746865207a65726f20616464726573735969656c644d6174683a20546f6f206661722066726f6d206d617475726974795969656c644d6174683a20496e73756666696369656e742044616920726573657276657345524332303a2064656372656173656420616c6c6f77616e63652062656c6f77207a65726fa26469706673582212202f39a2ee3fabc031944c0d4c1ac2c82ae291e4953b1092a34793b4d167f20d5d64736f6c634300060a0033c89efdaa54c0f20c7adf612882df0950f5a951637e0307cdcb4c672f298b8bc65065726d69742861646472657373206f776e65722c61646472657373207370656e6465722c75696e743235362076616c75652c75696e74323536206e6f6e63652c75696e7432353620646561646c696e6529454950373132446f6d61696e28737472696e67206e616d652c737472696e672076657273696f6e2c75696e7432353620636861696e49642c6164647265737320766572696679696e67436f6e747261637429",
  "immutableReferences": {
    "9200": [
      {
        "length": 32,
        "start": 2733
      },
      {
        "length": 32,
        "start": 5999
      }
    ],
    "9202": [
      {
        "length": 32,
        "start": 2834
      },
      {
        "length": 32,
        "start": 3845
      }
    ],
    "9465": [
      {
        "length": 32,
        "start": 3680
      },
      {
        "length": 32,
        "start": 8932
      }
    ],
    "9467": [
      {
        "length": 32,
        "start": 3725
      },
      {
        "length": 32,
        "start": 9041
      }
    ],
    "24228": [
      {
        "length": 32,
        "start": 2406
      },
      {
        "length": 32,
        "start": 2540
      },
      {
        "length": 32,
        "start": 3157
      },
      {
        "length": 32,
        "start": 3303
      },
      {
        "length": 32,
        "start": 3502
      },
      {
        "length": 32,
        "start": 3883
      },
      {
        "length": 32,
        "start": 4017
      },
      {
        "length": 32,
        "start": 4268
      },
      {
        "length": 32,
        "start": 4414
      },
      {
        "length": 32,
        "start": 4610
      },
      {
        "length": 32,
        "start": 5007
      },
      {
        "length": 32,
        "start": 5845
      },
      {
        "length": 32,
        "start": 6543
      },
      {
        "length": 32,
        "start": 7523
      },
      {
        "length": 32,
        "start": 8158
      },
      {
        "length": 32,
        "start": 8735
      },
      {
        "length": 32,
        "start": 10406
      }
    ]
  },
  "source": "// SPDX-License-Identifier: GPL-3.0-or-later\r\npragma solidity ^0.6.10;\r\n\r\nimport \"@openzeppelin/contracts/token/ERC20/ERC20.sol\";\r\nimport \"@openzeppelin/contracts/token/ERC20/IERC20.sol\";\r\nimport \"./YieldMath.sol\";\r\nimport \"../helpers/Delegable.sol\";\r\nimport \"../helpers/ERC20Permit.sol\";\r\nimport \"../interfaces/IPot.sol\";\r\nimport \"../interfaces/IYDai.sol\";\r\nimport \"../interfaces/IPool.sol\";\r\n\r\n\r\n/// @dev The Pool contract exchanges Dai for yDai at a price defined by a specific formula.\r\ncontract Pool is IPool, Delegable(), ERC20Permit {\r\n\r\n    event Trade(uint256 maturity, address indexed from, address indexed to, int256 daiTokens, int256 yDaiTokens);\r\n    event Liquidity(uint256 maturity, address indexed from, address indexed to, int256 daiTokens, int256 yDaiTokens, int256 poolTokens);\r\n\r\n    int128 constant public k = int128(uint256((1 << 64)) / 126144000); // 1 / Seconds in 4 years, in 64.64\r\n    int128 constant public g = int128(uint256((999 << 64)) / 1000); // All constants are `ufixed`, to divide them they must be converted to uint256\r\n    uint128 immutable public maturity;\r\n\r\n    IERC20 public override dai;\r\n    IYDai public override yDai;\r\n\r\n    constructor(address dai_, address yDai_, string memory name_, string memory symbol_)\r\n        public\r\n        ERC20Permit(name_, symbol_)\r\n    {\r\n        dai = IERC20(dai_);\r\n        yDai = IYDai(yDai_);\r\n\r\n        maturity = toUint128(yDai.maturity());\r\n    }\r\n\r\n    /// @dev Trading can only be done before maturity\r\n    modifier beforeMaturity() {\r\n        require(\r\n            now < maturity,\r\n            \"Pool: Too late\"\r\n        );\r\n        _;\r\n    }\r\n\r\n    /// @dev Overflow-protected addition, from OpenZeppelin\r\n    function add(uint128 a, uint128 b)\r\n        internal pure returns (uint128)\r\n    {\r\n        uint128 c = a + b;\r\n        require(c >= a, \"Pool: Dai reserves too high\");\r\n\r\n        return c;\r\n    }\r\n\r\n    /// @dev Overflow-protected substraction, from OpenZeppelin\r\n    function sub(uint128 a, uint128 b) internal pure returns (uint128) {\r\n        require(b <= a, \"Pool: yDai reserves too low\");\r\n        uint128 c = a - b;\r\n\r\n        return c;\r\n    }\r\n\r\n    /// @dev Safe casting from uint256 to uint128\r\n    function toUint128(uint256 x) internal pure returns(uint128) {\r\n        require(\r\n            x <= type(uint128).max,\r\n            \"Pool: Cast overflow\"\r\n        );\r\n        return uint128(x);\r\n    }\r\n\r\n    /// @dev Safe casting from uint256 to int256\r\n    function toInt256(uint256 x) internal pure returns(int256) {\r\n        require(\r\n            x <= uint256(type(int256).max),\r\n            \"Pool: Cast overflow\"\r\n        );\r\n        return int256(x);\r\n    }\r\n\r\n    /// @dev Mint initial liquidity tokens.\r\n    /// The liquidity provider needs to have called `dai.approve`\r\n    /// @param daiIn The initial Dai liquidity to provide.\r\n    function init(uint128 daiIn)\r\n        external\r\n        beforeMaturity\r\n    {\r\n        require(\r\n            totalSupply() == 0,\r\n            \"Pool: Already initialized\"\r\n        );\r\n        // no yDai transferred, because initial yDai deposit is entirely virtual\r\n        dai.transferFrom(msg.sender, address(this), daiIn);\r\n        _mint(msg.sender, daiIn);\r\n        emit Liquidity(maturity, msg.sender, msg.sender, -toInt256(daiIn), 0, toInt256(daiIn));\r\n    }\r\n\r\n    /// @dev Mint liquidity tokens in exchange for adding dai and yDai\r\n    /// The liquidity provider needs to have called `dai.approve` and `yDai.approve`.\r\n    /// @param from Wallet providing the dai and yDai. Must have approved the operator with `pool.addDelegate(operator)`.\r\n    /// @param to Wallet receiving the minted liquidity tokens.\r\n    /// @param daiOffered Amount of `dai` being invested, an appropriate amount of `yDai` to be invested alongside will be calculated and taken by this function from the caller.\r\n    /// @return The amount of liquidity tokens minted.\r\n    function mint(address from, address to, uint256 daiOffered)\r\n        external override\r\n        onlyHolderOrDelegate(from, \"Pool: Only Holder Or Delegate\")\r\n        returns (uint256)\r\n    {\r\n        uint256 supply = totalSupply();\r\n        uint256 daiReserves = dai.balanceOf(address(this));\r\n        // use the actual reserves rather than the virtual reserves\r\n        uint256 yDaiReserves = yDai.balanceOf(address(this));\r\n        uint256 tokensMinted = supply.mul(daiOffered).div(daiReserves);\r\n        uint256 yDaiRequired = yDaiReserves.mul(tokensMinted).div(supply);\r\n\r\n        require(dai.transferFrom(from, address(this), daiOffered));\r\n        require(yDai.transferFrom(from, address(this), yDaiRequired));\r\n        _mint(to, tokensMinted);\r\n        emit Liquidity(maturity, from, to, -toInt256(daiOffered), -toInt256(yDaiRequired), toInt256(tokensMinted));\r\n\r\n        return tokensMinted;\r\n    }\r\n\r\n    /// @dev Burn liquidity tokens in exchange for dai and yDai.\r\n    /// The liquidity provider needs to have called `pool.approve`.\r\n    /// @param from Wallet providing the liquidity tokens. Must have approved the operator with `pool.addDelegate(operator)`.\r\n    /// @param to Wallet receiving the dai and yDai.\r\n    /// @param tokensBurned Amount of liquidity tokens being burned.\r\n    /// @return The amount of reserve tokens returned (daiTokens, yDaiTokens).\r\n    function burn(address from, address to, uint256 tokensBurned)\r\n        external override\r\n        onlyHolderOrDelegate(from, \"Pool: Only Holder Or Delegate\")\r\n        returns (uint256, uint256)\r\n    {\r\n        uint256 supply = totalSupply();\r\n        uint256 daiReserves = dai.balanceOf(address(this));\r\n        // use the actual reserves rather than the virtual reserves\r\n        uint256 daiReturned;\r\n        uint256 yDaiReturned;\r\n        { // avoiding stack too deep\r\n            uint256 yDaiReserves = yDai.balanceOf(address(this));\r\n            daiReturned = tokensBurned.mul(daiReserves).div(supply);\r\n            yDaiReturned = tokensBurned.mul(yDaiReserves).div(supply);\r\n        }\r\n\r\n        _burn(from, tokensBurned);\r\n        dai.transfer(to, daiReturned);\r\n        yDai.transfer(to, yDaiReturned);\r\n        emit Liquidity(maturity, from, to, toInt256(daiReturned), toInt256(yDaiReturned), -toInt256(tokensBurned));\r\n\r\n        return (daiReturned, yDaiReturned);\r\n    }\r\n\r\n    /// @dev Sell Dai for yDai\r\n    /// The trader needs to have called `dai.approve`\r\n    /// @param from Wallet providing the dai being sold. Must have approved the operator with `pool.addDelegate(operator)`.\r\n    /// @param to Wallet receiving the yDai being bought\r\n    /// @param daiIn Amount of dai being sold that will be taken from the user's wallet\r\n    /// @return Amount of yDai that will be deposited on `to` wallet\r\n    function sellDai(address from, address to, uint128 daiIn)\r\n        external override\r\n        onlyHolderOrDelegate(from, \"Pool: Only Holder Or Delegate\")\r\n        returns(uint128)\r\n    {\r\n        uint128 yDaiOut = sellDaiPreview(daiIn);\r\n\r\n        dai.transferFrom(from, address(this), daiIn);\r\n        yDai.transfer(to, yDaiOut);\r\n        emit Trade(maturity, from, to, -toInt256(daiIn), toInt256(yDaiOut));\r\n\r\n        return yDaiOut;\r\n    }\r\n\r\n    /// @dev Returns how much yDai would be obtained by selling `daiIn` dai\r\n    /// @param daiIn Amount of dai hypothetically sold.\r\n    /// @return Amount of yDai hypothetically bought.\r\n    function sellDaiPreview(uint128 daiIn)\r\n        public view override\r\n        beforeMaturity\r\n        returns(uint128)\r\n    {\r\n        uint128 daiReserves = getDaiReserves();\r\n        uint128 yDaiReserves = getYDaiReserves();\r\n\r\n        uint128 yDaiOut = YieldMath.yDaiOutForDaiIn(\r\n            daiReserves,\r\n            yDaiReserves,\r\n            daiIn,\r\n            toUint128(maturity - now), // This can't be called after maturity\r\n            k,\r\n            g\r\n        );\r\n\r\n        require(\r\n            sub(yDaiReserves, yDaiOut) >= add(daiReserves, daiIn),\r\n            \"Pool: yDai reserves too low\"\r\n        );\r\n\r\n        return yDaiOut;\r\n    }\r\n\r\n    /// @dev Buy Dai for yDai\r\n    /// The trader needs to have called `yDai.approve`\r\n    /// @param from Wallet providing the yDai being sold. Must have approved the operator with `pool.addDelegate(operator)`.\r\n    /// @param to Wallet receiving the dai being bought\r\n    /// @param daiOut Amount of dai being bought that will be deposited in `to` wallet\r\n    /// @return Amount of yDai that will be taken from `from` wallet\r\n    function buyDai(address from, address to, uint128 daiOut)\r\n        external override\r\n        onlyHolderOrDelegate(from, \"Pool: Only Holder Or Delegate\")\r\n        returns(uint128)\r\n    {\r\n        uint128 yDaiIn = buyDaiPreview(daiOut);\r\n\r\n        yDai.transferFrom(from, address(this), yDaiIn);\r\n        dai.transfer(to, daiOut);\r\n        emit Trade(maturity, from, to, toInt256(daiOut), -toInt256(yDaiIn));\r\n\r\n        return yDaiIn;\r\n    }\r\n\r\n    /// @dev Returns how much yDai would be required to buy `daiOut` dai.\r\n    /// @param daiOut Amount of dai hypothetically desired.\r\n    /// @return Amount of yDai hypothetically required.\r\n    function buyDaiPreview(uint128 daiOut)\r\n        public view override\r\n        beforeMaturity\r\n        returns(uint128)\r\n    {\r\n        return YieldMath.yDaiInForDaiOut(\r\n            getDaiReserves(),\r\n            getYDaiReserves(),\r\n            daiOut,\r\n            toUint128(maturity - now), // This can't be called after maturity\r\n            k,\r\n            g\r\n        );\r\n    }\r\n\r\n    /// @dev Sell yDai for Dai\r\n    /// The trader needs to have called `yDai.approve`\r\n    /// @param from Wallet providing the yDai being sold. Must have approved the operator with `pool.addDelegate(operator)`.\r\n    /// @param to Wallet receiving the dai being bought\r\n    /// @param yDaiIn Amount of yDai being sold that will be taken from the user's wallet\r\n    /// @return Amount of dai that will be deposited on `to` wallet\r\n    function sellYDai(address from, address to, uint128 yDaiIn)\r\n        external override\r\n        onlyHolderOrDelegate(from, \"Pool: Only Holder Or Delegate\")\r\n        returns(uint128)\r\n    {\r\n        uint128 daiOut = sellYDaiPreview(yDaiIn);\r\n\r\n        yDai.transferFrom(from, address(this), yDaiIn);\r\n        dai.transfer(to, daiOut);\r\n        emit Trade(maturity, from, to, toInt256(daiOut), -toInt256(yDaiIn));\r\n\r\n        return daiOut;\r\n    }\r\n\r\n    /// @dev Returns how much dai would be obtained by selling `yDaiIn` yDai.\r\n    /// @param yDaiIn Amount of yDai hypothetically sold.\r\n    /// @return Amount of Dai hypothetically bought.\r\n    function sellYDaiPreview(uint128 yDaiIn)\r\n        public view override\r\n        beforeMaturity\r\n        returns(uint128)\r\n    {\r\n        return YieldMath.daiOutForYDaiIn(\r\n            getDaiReserves(),\r\n            getYDaiReserves(),\r\n            yDaiIn,\r\n            toUint128(maturity - now), // This can't be called after maturity\r\n            k,\r\n            g\r\n        );\r\n    }\r\n\r\n    /// @dev Buy yDai for dai\r\n    /// The trader needs to have called `dai.approve`\r\n    /// @param from Wallet providing the dai being sold. Must have approved the operator with `pool.addDelegate(operator)`.\r\n    /// @param to Wallet receiving the yDai being bought\r\n    /// @param yDaiOut Amount of yDai being bought that will be deposited in `to` wallet\r\n    /// @return Amount of dai that will be taken from `from` wallet\r\n    function buyYDai(address from, address to, uint128 yDaiOut)\r\n        external override\r\n        onlyHolderOrDelegate(from, \"Pool: Only Holder Or Delegate\")\r\n        returns(uint128)\r\n    {\r\n        uint128 daiIn = buyYDaiPreview(yDaiOut);\r\n\r\n        dai.transferFrom(from, address(this), daiIn);\r\n        yDai.transfer(to, yDaiOut);\r\n        emit Trade(maturity, from, to, -toInt256(daiIn), toInt256(yDaiOut));\r\n\r\n        return daiIn;\r\n    }\r\n\r\n\r\n    /// @dev Returns how much dai would be required to buy `yDaiOut` yDai.\r\n    /// @param yDaiOut Amount of yDai hypothetically desired.\r\n    /// @return Amount of Dai hypothetically required.\r\n    function buyYDaiPreview(uint128 yDaiOut)\r\n        public view override\r\n        beforeMaturity\r\n        returns(uint128)\r\n    {\r\n        uint128 daiReserves = getDaiReserves();\r\n        uint128 yDaiReserves = getYDaiReserves();\r\n\r\n        uint128 daiIn = YieldMath.daiInForYDaiOut(\r\n            daiReserves,\r\n            yDaiReserves,\r\n            yDaiOut,\r\n            toUint128(maturity - now), // This can't be called after maturity\r\n            k,\r\n            g\r\n        );\r\n\r\n        require(\r\n            sub(yDaiReserves, yDaiOut) >= add(daiReserves, daiIn),\r\n            \"Pool: yDai reserves too low\"\r\n        );\r\n\r\n        return daiIn;\r\n    }\r\n\r\n    /// @dev Returns the \"virtual\" yDai reserves\r\n    function getYDaiReserves()\r\n        public view override\r\n        returns(uint128)\r\n    {\r\n        return toUint128(yDai.balanceOf(address(this)) + totalSupply());\r\n    }\r\n\r\n    /// @dev Returns the Dai reserves\r\n    function getDaiReserves()\r\n        public view override\r\n        returns(uint128)\r\n    {\r\n        return toUint128(dai.balanceOf(address(this)));\r\n    }\r\n}\r\n",
  "sourcePath": "C:/Users/bruce/dev/yield/yDai/contracts/pool/Pool.sol",
  "compiler": {
    "name": "solc",
    "version": "0.6.10+commit.00c0fcaf.Emscripten.clang"
  },
  "schemaVersion": "3.2.3",
  "updatedAt": "2020-08-26T07:49:07.759Z",
  "networkType": "ethereum",
  "devdoc": {
    "details": "The Pool contract exchanges Dai for yDai at a price defined by a specific formula.",
    "methods": {
      "addDelegate(address)": {
        "details": "Enable a delegate to act on the behalf of caller"
      },
      "addDelegateBySignature(address,address,uint256,uint8,bytes32,bytes32)": {
        "details": "Add a delegate through an encoded signature"
      },
      "allowance(address,address)": {
        "details": "See {IERC20-allowance}."
      },
      "approve(address,uint256)": {
        "details": "See {IERC20-approve}. Requirements: - `spender` cannot be the zero address."
      },
      "balanceOf(address)": {
        "details": "See {IERC20-balanceOf}."
      },
      "burn(address,address,uint256)": {
        "details": "Burn liquidity tokens in exchange for dai and yDai. The liquidity provider needs to have called `pool.approve`.",
        "params": {
          "from": "Wallet providing the liquidity tokens. Must have approved the operator with `pool.addDelegate(operator)`.",
          "to": "Wallet receiving the dai and yDai.",
          "tokensBurned": "Amount of liquidity tokens being burned."
        },
        "returns": {
          "_0": "The amount of reserve tokens returned (daiTokens, yDaiTokens)."
        }
      },
      "buyDai(address,address,uint128)": {
        "details": "Buy Dai for yDai The trader needs to have called `yDai.approve`",
        "params": {
          "daiOut": "Amount of dai being bought that will be deposited in `to` wallet",
          "from": "Wallet providing the yDai being sold. Must have approved the operator with `pool.addDelegate(operator)`.",
          "to": "Wallet receiving the dai being bought"
        },
        "returns": {
          "_0": "Amount of yDai that will be taken from `from` wallet"
        }
      },
      "buyDaiPreview(uint128)": {
        "details": "Returns how much yDai would be required to buy `daiOut` dai.",
        "params": {
          "daiOut": "Amount of dai hypothetically desired."
        },
        "returns": {
          "_0": "Amount of yDai hypothetically required."
        }
      },
      "buyYDai(address,address,uint128)": {
        "details": "Buy yDai for dai The trader needs to have called `dai.approve`",
        "params": {
          "from": "Wallet providing the dai being sold. Must have approved the operator with `pool.addDelegate(operator)`.",
          "to": "Wallet receiving the yDai being bought",
          "yDaiOut": "Amount of yDai being bought that will be deposited in `to` wallet"
        },
        "returns": {
          "_0": "Amount of dai that will be taken from `from` wallet"
        }
      },
      "buyYDaiPreview(uint128)": {
        "details": "Returns how much dai would be required to buy `yDaiOut` yDai.",
        "params": {
          "yDaiOut": "Amount of yDai hypothetically desired."
        },
        "returns": {
          "_0": "Amount of Dai hypothetically required."
        }
      },
      "decimals()": {
        "details": "Returns the number of decimals used to get its user representation. For example, if `decimals` equals `2`, a balance of `505` tokens should be displayed to a user as `5,05` (`505 / 10 ** 2`). Tokens usually opt for a value of 18, imitating the relationship between Ether and Wei. This is the value {ERC20} uses, unless {_setupDecimals} is called. NOTE: This information is only used for _display_ purposes: it in no way affects any of the arithmetic of the contract, including {IERC20-balanceOf} and {IERC20-transfer}."
      },
      "decreaseAllowance(address,uint256)": {
        "details": "Atomically decreases the allowance granted to `spender` by the caller. This is an alternative to {approve} that can be used as a mitigation for problems described in {IERC20-approve}. Emits an {Approval} event indicating the updated allowance. Requirements: - `spender` cannot be the zero address. - `spender` must have allowance for the caller of at least `subtractedValue`."
      },
      "getDaiReserves()": {
        "details": "Returns the Dai reserves"
      },
      "getYDaiReserves()": {
        "details": "Returns the \"virtual\" yDai reserves"
      },
      "increaseAllowance(address,uint256)": {
        "details": "Atomically increases the allowance granted to `spender` by the caller. This is an alternative to {approve} that can be used as a mitigation for problems described in {IERC20-approve}. Emits an {Approval} event indicating the updated allowance. Requirements: - `spender` cannot be the zero address."
      },
      "init(uint128)": {
        "details": "Mint initial liquidity tokens. The liquidity provider needs to have called `dai.approve`",
        "params": {
          "daiIn": "The initial Dai liquidity to provide."
        }
      },
      "mint(address,address,uint256)": {
        "details": "Mint liquidity tokens in exchange for adding dai and yDai The liquidity provider needs to have called `dai.approve` and `yDai.approve`.",
        "params": {
          "daiOffered": "Amount of `dai` being invested, an appropriate amount of `yDai` to be invested alongside will be calculated and taken by this function from the caller.",
          "from": "Wallet providing the dai and yDai. Must have approved the operator with `pool.addDelegate(operator)`.",
          "to": "Wallet receiving the minted liquidity tokens."
        },
        "returns": {
          "_0": "The amount of liquidity tokens minted."
        }
      },
      "name()": {
        "details": "Returns the name of the token."
      },
      "permit(address,address,uint256,uint256,uint8,bytes32,bytes32)": {
        "details": "See {IERC2612-permit}. In cases where the free option is not a concern, deadline can simply be set to uint(-1), so it should be seen as an optional parameter"
      },
      "revokeDelegate(address)": {
        "details": "Stop a delegate from acting on the behalf of caller"
      },
      "sellDai(address,address,uint128)": {
        "details": "Sell Dai for yDai The trader needs to have called `dai.approve`",
        "params": {
          "daiIn": "Amount of dai being sold that will be taken from the user's wallet",
          "from": "Wallet providing the dai being sold. Must have approved the operator with `pool.addDelegate(operator)`.",
          "to": "Wallet receiving the yDai being bought"
        },
        "returns": {
          "_0": "Amount of yDai that will be deposited on `to` wallet"
        }
      },
      "sellDaiPreview(uint128)": {
        "details": "Returns how much yDai would be obtained by selling `daiIn` dai",
        "params": {
          "daiIn": "Amount of dai hypothetically sold."
        },
        "returns": {
          "_0": "Amount of yDai hypothetically bought."
        }
      },
      "sellYDai(address,address,uint128)": {
        "details": "Sell yDai for Dai The trader needs to have called `yDai.approve`",
        "params": {
          "from": "Wallet providing the yDai being sold. Must have approved the operator with `pool.addDelegate(operator)`.",
          "to": "Wallet receiving the dai being bought",
          "yDaiIn": "Amount of yDai being sold that will be taken from the user's wallet"
        },
        "returns": {
          "_0": "Amount of dai that will be deposited on `to` wallet"
        }
      },
      "sellYDaiPreview(uint128)": {
        "details": "Returns how much dai would be obtained by selling `yDaiIn` yDai.",
        "params": {
          "yDaiIn": "Amount of yDai hypothetically sold."
        },
        "returns": {
          "_0": "Amount of Dai hypothetically bought."
        }
      },
      "symbol()": {
        "details": "Returns the symbol of the token, usually a shorter version of the name."
      },
      "totalSupply()": {
        "details": "See {IERC20-totalSupply}."
      },
      "transfer(address,uint256)": {
        "details": "See {IERC20-transfer}. Requirements: - `recipient` cannot be the zero address. - the caller must have a balance of at least `amount`."
      },
      "transferFrom(address,address,uint256)": {
        "details": "See {IERC20-transferFrom}. Emits an {Approval} event indicating the updated allowance. This is not required by the EIP. See the note at the beginning of {ERC20}; Requirements: - `sender` and `recipient` cannot be the zero address. - `sender` must have a balance of at least `amount`. - the caller must have allowance for ``sender``'s tokens of at least `amount`."
      }
    }
  },
  "userdoc": {
    "methods": {}
  }
}